:020000040800F2
:100000000004002031080008010A0008010A000865
:10001000010A0008010A0008010A0008010A000894
:10002000010A0008010A0008010A0008310A000854
:10003000010A0008010A0008010A0008010B000873
:10004000010A0008010A0008010A0008010A000864
:10005000010A0008010A0008010A0008010A000854
:10006000010A0008010A0008010A0008D12400085A
:10007000012500084125000881250008C125000848
:10008000F125000831260008010A0008010A0008CD
:10009000010A0008010A0008010A0008010A000814
:1000A000010A0008010A0008010A0008010A000804
:1000B000010A000881370008010A0008010A000847
:1000C000010A0008010A0008010A0008010A0008E4
:1000D000010A0008010A000891390008010A000815
:1000E000010A0008010A0008010A0008010A0008C4
:1000F000010A0008010A0008010A00087126000828
:10010000010A0008612C0008010A0008010A000821
:10011000010A0008010A0008010A0008010A000893
:10012000B1260008E1260008212700086127000801
:10013000A1270008010A0008010A0008010A0008B6
:10014000010A0008010A0008010A0008010A000863
:10015000D12700081128000851280008010A0008CA
:10016000010A0008010A0008010A0008010A000843
:10017000010A0008010A0008010A0008010A000833
:10018000010A0008010A0008010A0008010A000823
:10019000010A0008010A0008010A0008010A000813
:0C01A000010A0008010A0008010A00081A
:1001B00010B588B003F02CFD13F0BAFC12F018FD56
:1001C000334804F03DFF07F01BFF3248002108F0E0
:1001D00087F8314B4FF6FF711868002404F000FBDC
:1001E00001F046FD2D4803A9052201F0E9FA4FF47C
:1001F000347140222A4B00942A4801F029F82A4AF7
:100200002A4B10604FF4E87140220094284801F016
:100210001FF82849284B086040224FF4E8710094E9
:10022000264801F015F8264A264B10604FF4E87175
:1002300040220094244801F00BF82449244B086024
:1002400040224FF434710094224801F001F8224A10
:10025000224B10604FF4347140220094204800F08B
:10026000F7FF2049204B086040224FF40D610094B5
:100270001E4800F0EDFF1E4B00944FF4C251186071
:1002800040221C481C4B1D4C00F0E2FF2060FEE7A2
:10029000985E0108605F0108601300205050002044
:1002A000411B01087850002048530020E11B010841
:1002B000804E0020F4560020F11B0108505300200E
:1002C000C8420020011C010820550020F0560020E3
:1002D000211C0108A04B00207C4E0020B11C01080D
:1002E000F83F0020704E0020011E0108D04200207F
:1002F000744E0020B8270020F1290108784E002014
:1003000080F0004002E000BF81F0004142001FBFCA
:100310005FEA410392EA030F7FEA226C7FEA236CD3
:100320006AD04FEA1262D2EB1363C1BFD2184140C8
:1003300048404140B8BF5B42192B88BF704710F05E
:10034000004F40F4000020F07F4018BF404211F001
:10035000004F41F4000121F07F4118BF494292EA69
:10036000030F3FD0A2F1010241FA03FC10EB0C0095
:10037000C3F1200301FA03F100F0004302D5494222
:1003800060EB4000B0F5000F13D3B0F1807F06D3CF
:1003900040084FEA310102F10102FE2A51D2B1F1C7
:1003A000004F40EBC25008BF20F0010040EA0300BC
:1003B0007047490040EB000010F4000FA2F1010269
:1003C000EDD1B0FA80FCACF1080CB2EB0C0200FAF3
:1003D0000CF0AABF00EBC25052421843BCBFD04041
:1003E0001843704792F0000F81F4000106BF80F4BB
:1003F00000000132013BB5E74FEA41037FEA226C7E
:1004000018BF7FEA236C21D092EA030F04D092F048
:10041000000F08BF0846704790EA010F1CBF00207C
:10042000704712F07F4F04D1400028BF40F00040D9
:10043000704712F100723CBF00F50000704700F0F9
:10044000004343F0FE4040F4000070477FEA226220
:1004500016BF08467FEA23630146420206BF5FEAF1
:10046000412390EA010F40F4800070474FF00003F1
:1004700004E000BF10F0004348BF40425FEA000CB8
:1004800008BF704743F0964301464FF000001CE060
:1004900050EA010208BF70474FF000030AE000BFB6
:1004A00050EA010208BF704711F0004302D54042F4
:1004B00061EB41015FEA010C02BF84460146002066
:1004C00043F0B64308BFA3F18053A3F50003BCFA81
:1004D0008CF2083AA3EBC25310DB01FA02FC63442E
:1004E00000FA02FCC2F12002BCF1004F20FA02F235
:1004F00043EB020008BF20F00100704702F1200228
:1005000001FA02FCC2F1200250EA4C0021FA02F288
:1005100043EB020008BF20EADC70704700000000D7
:100520004FF0FF0C1CEAD0521EBF1CEAD15392EAD6
:100530000C0F93EA0C0F6FD01A4480EA010C4002B2
:1005400018BF5FEA41211ED04FF0006343EA50100C
:1005500043EA5111A0FB01310CF00040B1F5000F4E
:100560003EBF490041EAD3715B0040EA010062F1FD
:100570007F02FD2A1DD8B3F1004F40EBC25008BFE7
:1005800020F00100704790F0000F0CF0004C08BF05
:1005900049024CEA502040EA51207F3AC2BFD2F1D2
:1005A000FF0340EAC250704740F400004FF00003E0
:1005B000013A5DDC12F1190FDCBF00F0004070471A
:1005C000C2F10002410021FA02F1C2F1200200FA58
:1005D00002FC5FEA310040F1000053EA4C0308BF1F
:1005E00020EADC70704792F0000F00F0004C02BF70
:1005F000400010F4000F013AF9D040EA0C0093F0EB
:10060000000F01F0004C02BF490011F4000F013B44
:10061000F9D041EA0C018FE70CEAD15392EA0C0FB2
:1006200018BF93EA0C0F0AD030F0004C18BF31F01D
:10063000004CD8D180EA010000F00040704790F0F3
:10064000000F17BF90F0004F084691F0000F91F097
:10065000004F14D092EA0C0F01D142020FD193EA5D
:100660000C0F03D14B0218BF084608D180EA0100E5
:1006700000F0004040F0FE4040F40000704740F0C1
:10068000FE4040F4400070474FF0FF0C1CEAD0528F
:100690001EBF1CEAD15392EA0C0F93EA0C0F69D0EB
:1006A000A2EB030280EA010C49024FEA402037D056
:1006B0004FF0805343EA111143EA10130CF000404D
:1006C0008B4238BF5B0042F17D024FF4000C8B423D
:1006D00024BF5B1A40EA0C00B3EB510F24BFA3EB1D
:1006E000510340EA5C00B3EB910F24BFA3EB9103ED
:1006F00040EA9C00B3EBD10F24BFA3EBD10340EA47
:10070000DC001B0118BF5FEA1C1CE0D1FD2A3FF68C
:1007100050AF8B4240EBC25008BF20F00100704741
:100720000CF0004C4CEA50207F32C2BFD2F1FF03E4
:1007300040EAC250704740F400004FF00003013A15
:1007400037E792F0000F00F0004C02BF400010F4B9
:10075000000F013AF9D040EA0C0093F0000F01F0CD
:10076000004C02BF490011F4000F013BF9D041EAEF
:100770000C0195E70CEAD15392EA0C0F08D1420222
:100780007FF47DAF93EA0C0F7FF470AF084676E7F5
:1007900093EA0C0F04D14B023FF44CAF08466EE7CE
:1007A00030F0004C18BF31F0004CCAD130F000429C
:1007B0007FF45CAF31F000437FF43CAF5FE700BFF4
:1007C0004FEA4002B2F1FE4F0FD34FF09E03B3EB5E
:1007D00012620DD94FEA002343F0004310F0004F9E
:1007E00023FA02F018BF404270474FF000007047F4
:1007F00012F1610F01D1420205D110F0004008BF93
:100800006FF0004070474FF000007047000000009C
:10081000704700BFAFF30080AFF30080AFF30080FC
:10082000FEE700BFAFF30080AFF30080AFF30080BE
:1008300072B6644C84F30988022383F31488BFF3EF
:100840006F8F61486149884218D2CA1C051D531B2D
:1008500023F00302034610184FF05531834219600C
:10086000C2F380020AD01AB185422B46296005D016
:100870001D1D5960083383426960F9D15448A04274
:1008800018D25449041D0A1B22F0030503462818F8
:100890004FF0553183421960C5F380020AD01AB176
:1008A00084422346216005D01D1D596008338342D0
:1008B0006960F9D103F08CF94749484881421BD25D
:1008C000C61C0C1D321B464822F00302161D05688B
:1008D0000423B3420D60C2F380020DD022B14568FB
:1008E0000823B342256007D01A1D1D5884585D5057
:1008F0000833B3428C50F7D13A483B49884217D26B
:10090000CB1C041D1A1B22F00305034628180021E6
:1009100083421960C5F380020AD01AB1844223468B
:10092000216005D01D1D5960083383426960F9D1EB
:10093000FFF76EFF2D4D2E498D421DD2CC1C2E1D72
:10094000A71BB808471C01242A6800EA040890473E
:10095000BC4211D0B8F1000F05D00224336898478B
:10096000BC42354608D0696888470234A8682E1D05
:1009700080470835BC42F6D1FFF71AFC1D4D1E4AD0
:1009800095421DD2D41C2E1DA71BBB085F1C012441
:10099000296803EA04088847BC4211D0B8F1000F67
:1009A00005D0022430688047BC42354608D06A68CA
:1009B00090470234AB682E1D98470835BC42F6D1EB
:1009C000FFF72EFF00080020000000200004002098
:1009D000000400200308002000080020540C002020
:1009E000786E0108580C0020F8560020AC01000871
:1009F000AC010008AC010008AC010008AFF30080B6
:100A0000FEE700BFAFF30080AFF30080AFF30080DC
:100A100072B6FEE7AFF30080AFF30080AFF3008063
:100A200000F076F900F0A4FB00F08AF900DF00BFC7
:100A3000EFF30983203383F30988002383F31188BC
:100A4000704700BFAFF30080AFF30080AFF30080CA
:100A500008B54FF46D43CEF200034FF44072C0F27C
:100A6000FA520021996007201021DA6000F0A0F806
:100A70000A20202100F09CF80B208021BDE80840CE
:100A800000F096B8AFF30080AFF30080AFF30080C2
:100A9000202383F311884FF46D43CEF2000358688E
:100AA00010F4006319D0EFF309834FF0807243F81C
:100AB000042CA3F1200181F309880E498A69096891
:100AC000D07F8968926858B1914294BF0022012278
:100AD00062B1094A43F8082C704783F311887047C4
:100AE000914234BF00220122002AF2D1034843F888
:100AF000080C70479C0D0020210A00082C0A0008F1
:100B000008B500F075F9202383F3118800F038F957
:100B100000F0AEF800F04CF9002383F3118800F0E8
:100B200087F9BDE80840FFF7B3BF00BFAFF300800F
:100B30002DE9F04FC1F80CD0D0F80CD0BDE8F08F03
:100B400008B500F0FDF8002383F311882846A0477C
:100B500000F00EFC08BD00BFAFF30080AFF30080D3
:100B6000F0B44FF461438408CEF20003C03400F0C7
:100B7000030553F82470ED00FF26420906FA05F636
:100B800027EA060601FA05F500F01F0002F16007EA
:100B9000012101FA00F02E4343F8246043F82700B6
:100BA00043F82200F0BC7047AFF30080AFF3008041
:100BB00082084FF46D43CEF20003063200F00300CA
:100BC00030B4C00053F82250FF2404FA00F425EAA0
:100BD000040401FA00F10C4343F8224030BC704792
:100BE000024B034A98698261FEE700BF9C0D00201A
:100BF00070560108AFF30080AFF30080AFF30080C0
:100C000030B583B0FFF724FF00F0B2F900F060F9CF
:100C100000F0E6FF01F02CF840F638504021C2F217
:100C2000000000F0B5FA40F69C54C2F20004012521
:100C30000577A06100F054F8002383F3118862B6B1
:100C400045F2E061A269C0F60101916140F65840A9
:100C5000009340F6E133E0212A46C0F60003C2F2D9
:100C6000000000F0F5FA03B030BD00BFAFF3008024
:100C7000F8B500F0FDF8154B9869C27F0AB1511E16
:100C8000C177046A124D631C0362E8682C68421C39
:100C9000AC42EA6018D0A768013FA760A7B92168F5
:100CA000E6684D60E760296000F082F8002383F376
:100CB00011882069B047202383F3118800F060F881
:100CC0002C68A368002BEAD0F8BD00BF9C0D002063
:100CD0008C0D0020AFF30080AFF30080AFF30080F5
:100CE000054B186810B905490A6822B10448054B3C
:100CF0001860FFF78DBE7047800D0020840D002026
:100D000090560108880D0020AFF30080AFF30080FB
:100D1000074B186810B5074C08B9216821B1064A7D
:100D2000064B1A60FFF774FE0120206010BD00BF63
:100D3000800D0020840D002098560108880D0020A9
:100D4000084B186810B5084C28B92168002902DD45
:100D50000020206010BD054A054B1A60FFF758FEC1
:100D6000F6E700BF800D0020840D0020A05601088A
:100D7000880D0020AFF30080AFF30080AFF3008058
:100D8000074B1868002810B5064C01DD216821B119
:100D9000054A064B1A60FFF73BFE0120206010BD9C
:100DA000800D0020840D0020A8560108880D002029
:100DB000084B1868002810B5074C05DD216800298C
:100DC00002DD0020206010BD044A054B1A60FFF7C9
:100DD0001FFEF6E7800D0020840D0020B0560108AC
:100DE000880D0020AFF30080AFF30080AFF30080E8
:100DF00010B5202383F31188094C2168002902DBF8
:100E0000084A106828B10849084B1960FFF700FE2E
:100E100021684A1C2260002383F3118810BD00BFA3
:100E2000800D0020840D0020B8560108880D002098
:100E300010B5202383F31188094C2168002902DDB5
:100E4000084A106828B10849084B1960FFF7E0FD0F
:100E500021684A1E2260002383F3118810BD00BF61
:100E6000800D0020840D0020C0560108880D002050
:100E7000064B1868002804DB05490A68002A00DDD3
:100E800070470448044B1860FFF7C2BD800D002076
:100E9000840D0020C8560108880D0020AFF30080A3
:100EA000064B186820B906490A68002A00DD704719
:100EB0000448054B1860FFF7ABBD00BF800D002054
:100EC000840D0020D0560108880D0020AFF300806B
:100ED00040F68C53C2F200034FF0FF3200205B60FB
:100EE0001B609A60D8607047AFF30080AFF300805A
:100EF000F8B5054616461F460C46FFF7B9FF0C49E4
:100F00002F610B68EE609A68944204D91B68A41A9A
:100F10009A68A242FAD358682B608B4268600560D9
:100F20005D60AC6002D099680C1B9C60F8BD00BF8E
:100F30008C0D0020AFF30080AFF30080AFF3008092
:100F400010B50446FFF794FF2368074A934203D085
:100F50009968A0680A189A6061680B60236800208D
:100F60005960E06010BD00BF8C0D0020AFF3008021
:100F700040F69C53C2F2000300225B601B609A6043
:100F80005B611B61704700BFAFF30080AFF300806F
:100F900010B50446FFF76CFF0022A168064B2277CC
:100FA0001B6898688842FBD25968236061600C60B6
:100FB0005C60204610BD00BF9C0D0020AFF3008098
:100FC00010B52023044683F31188FFF7D9FE237F51
:100FD0000D2B11D8DFE803F016101007100B1010BE
:100FE00010101010100B606A8268511C816094E828
:100FF0000C001A60206843604FF0FF3363622046A4
:10100000FFF7C6FFFFF7D4FE002383F3118810BD5E
:1010100038B50546FFF744FF40F69C53C2F2000383
:1010200014201A6899691468C87701200D77107721
:10103000104663601C609A61BDE83840FFF778BDD8
:1010400070B50C4686B00646FFF72AFF631C12D027
:101050000B4D0C4AAB69214601A8FFF749FF30460A
:10106000FFF7D6FF049B13B101A8FFF769FFA8693A
:10107000406A06B070BD3046FFF7CAFF004DF6E784
:101080009C0D0020C10F0008AFF30080AFF300807B
:1010900070B50D4D04460E46FFF702FFA869A26821
:1010A000836866629A420AD9FFF772FF01460120FF
:1010B00020772046AC61BDE87040FFF739BD20467F
:1010C000BDE87040FFF764BF9C0D0020AFF30080C7
:1010D00038B540F69C54C2F2000401212368A5698A
:1010E0001A68197714205460E87728462260A361B3
:1010F000FFF74EFFA0692946BDE83840FFF718BD4D
:101100000D4B18689969026830B453608C681A6096
:1011100001259861002305770B77034600E01B68E3
:101120009A68A242FBD85A680B604A601160596005
:1011300030BCFFF7FDBC00BF9C0D0020AFF300806A
:1011400008B5FFF7ADFE064B1A6898699168836889
:10115000994200D808BDBDE80840FFF7D1BF00BFE5
:101160009C0D0020AFF30080AFF30080AFF3008050
:10117000034B9869C17F09B1FFF7C2BFFFF7A8BF52
:101180009C0D0020AFF30080AFF30080AFF3008030
:10119000F0B440F69C54C2F2000400226569016478
:1011A000046100F12C06816000F1280745614FF0D1
:1011B000020C60610121142480F81CC04277C477BE
:1011C000C2638263026281778261286187620663FB
:1011D000C662F0BC704700BFAFF30080AFF3008081
:1011E0002DE9F8430D4604461746994640F69C56AD
:1011F000FFF73EFEA5F1240C04EB0C00C2F2000642
:10120000089B7169E060436040F64133C0F600031B
:101210000362022344F80C9023771423002504F181
:101220002C0204F12808E37701232661A76061619D
:101230002046746165772764E563A5632562A3771B
:10124000A5610C61C4F828802263E262BDE8F883DE
:10125000F0B51C4683B005460E461746202383F39F
:101260001188FFF755FD089823463A46314600900D
:101270002846FFF7B5FF00210446FFF709FFFFF7F7
:101280005FFD002383F31188204603B0F0BD00BF4B
:1012900038B50446202383F31188FFF739FD094B45
:1012A0009869056C8268954201D0A24200D28460A0
:1012B0000464FFF745FFFFF743FD002383F3118824
:1012C000284638BD9C0D0020AFF30080AFF30080AE
:1012D00010B52023044683F31188FFF719FD21463A
:1012E0000620FFF7ADFEFFF72BFD002383F31188E7
:1012F00010BD00BFAFF30080AFF30080AFF30080FC
:1013000008B5202383F31188FFF702FD074B1A6805
:10131000986991688368994201D3FFF7D9FEFFF776
:101320000FFD002383F3118808BD00BF9C0D002032
:1013300038B50E4B9C692546606255F8280FA842C7
:1013400006D00168A162FFF723FEA06AA842F8D187
:10135000607F830704D1636922691A6121694B6147
:101360000E20BDE83840FFF753BE00BF9C0D0020A3
:1013700010B52023044683F31188FFF7C9FC2046EB
:10138000BDE81040FFF7D4BFAFF30080AFF300809B
:10139000F0B583B00D4616461F4600F079FC0446B2
:1013A000B8B1202383F31188FFF7B2FC08983246C6
:1013B0003B46294600902046FFF712FF0123437762
:1013C00000210446FFF764FEFFF7BAFC002383F315
:1013D0001188204603B0F0BDAFF30080AFF300806A
:1013E0004060006081607047AFF30080AFF3008021
:1013F00038B50446FFF754FDA368581E0028A060C6
:1014000001DB002038BD074DA9694C6262680C60A1
:101410004A60032061601160FFF7FAFDAB69586A0A
:1014200038BD00BF9C0D0020AFF30080AFF30080FB
:1014300010B52023044683F31188FFF769FC20468A
:10144000FFF7D6FF0446FFF77BFC002383F31188E8
:10145000204610BDAFF30080AFF30080AFF30080F3
:1014600038B504460D46FFF71BFDA268531E002B3E
:10147000A36001DB002038BD6DB1094883695C625F
:1014800062681C60032029465A6063601360BDE8EF
:101490003840FFF7D5BDA2604FF0FF3038BD00BF28
:1014A0009C0D0020AFF30080AFF30080AFF300800D
:1014B00038B505460C46202383F31188FFF728FC36
:1014C00021462846FFF7CCFF0446FFF739FC0023EE
:1014D00083F31188204638BDAFF30080AFF300805E
:1014E00010B50446FFF7C4FCA368581C0028A06090
:1014F00000DD10BD21680A680023084622605460A0
:101500004B62BDE81040FFF743BD00BFAFF3008062
:101510000023406000608360704700BFAFF300802D
:10152000F8B5304B05469C69FFF7BAFCAB68002B59
:1015300051D0A1689A68914206D9187F9960042811
:1015400031D005281CD090B128460068854203D0D0
:101550008368A1688B42F8D2426820606260446070
:10156000042014606562BDE8F840FFF751BD93E8C0
:1015700006001160196818464A60FFF709FDE3E7A5
:1015800058681F685E6A07601F6832467860126894
:10159000964202D090688842F9D251681A60596028
:1015A0000B605360D0E758681F685E6A07601F6869
:1015B000324678601268964212D090688842F9D21A
:1015C00051681A6059600B605360B368A1689A68EB
:1015D0008A42B2D3B8E7E06BAC60E860E563F8BD7F
:1015E0003246EDE79C0D0020AFF30080AFF30080A2
:1015F00010B52023044683F31188FFF789FB2046AA
:10160000FFF78EFFFFF79CFB002383F3118810BDCB
:10161000174A70B52023966983F31188FFF778FB8A
:10162000F46B2568E368A542F3631ED0316C4BB1BF
:101630001868984203D08268914238BF1146DB682F
:10164000002BF5D12B68EA6BB1602846236000219E
:101650005C60A560E260EC63FFF71AFDFFF770FBCA
:10166000002383F31188204670BD0023A360F5E7B3
:101670009C0D0020AFF30080AFF30080AFF300803B
:1016800038B504460D46FFF7F3FBA26B237F45EA0E
:101690000201082BA1630CD0092B00D038BD606A71
:1016A00001408842FAD12046FFF772FC00234362D2
:1016B00038BD626A1142F6D138BD00BFAFF3008079
:1016C00070B505460E46FFF7D3FB2C68A54208D03F
:1016D000201D0BC83343E360FFF7D2FF2468A54207
:1016E000F6D170BDAFF30080AFF30080AFF30080A0
:1016F000124B70B59C6905460E46202383F3118872
:10170000FFF706FB05F12C026262297F286B22603D
:101710000C29666360602C6304600AD00A20FFF71E
:1017200077FC646AFFF70CFB002383F311882046E3
:1017300070BD2846FFF72CFCF0E700BF9C0D002091
:1017400038B5202383F311880E4DFFF7E1FAAA691B
:10175000134653F82C4F9C420BD021680B20D162CA
:101760004B602077FFF7ECFA002383F311882046C3
:1017700038BD0C20FFF74CFCAA69134653F82C4FD8
:10178000EBE700BF9C0D0020AFF30080AFF30080BB
:1017900038B505460C46202383F31188FFF7B8FAC5
:1017A00028462146FFF774FCFFF7CAFA002383F3AB
:1017B000118838BDAFF30080AFF30080AFF3008035
:1017C00038B504460B4601EB820500F11C001146BA
:1017D000E360A36084E82800FFF702FE04F1100034
:1017E0000021BDE83840FFF7FBBD00BFAFF300802C
:1017F00070B5154604460E46FFF752FB294604F124
:101800001C00FFF72DFE054678B9A368626843F80F
:10181000046B9342A36028BF236804F1100028BF23
:10182000A360FFF75DFEFFF78BFC284670BD00BF8D
:1018300070B5202306460D46144683F31188FFF742
:1018400067FA224629463046FFF7D2FF0446FFF7E3
:1018500077FA002383F31188204670BDAFF3008030
:1018600070B5154604460E46FFF71AFB294604F1EB
:101870001000FFF7F5FD054680B9E368626853F88C
:10188000041B93423160E36028BF236804F11C000D
:1018900028BFE360FFF724FEFFF752FC284670BD27
:1018A00070B5202306460D46144683F31188FFF7D2
:1018B0002FFA224629463046FFF7D2FF0446FFF7AB
:1018C0003FFA002383F31188204670BDAFF30080F8
:1018D00010B4024659B1084B9B69586244680D2008
:1018E00083E814005360236010BCFFF7A9BB4FF0DE
:1018F000FF3010BC704700BF9C0D0020AFF300808C
:1019000010B4C361019B40608A18002400608460A9
:1019100041618161C1600261036210BC704700BF18
:1019200038B504460D46FFF7A3FA6369A269A068BB
:1019300093421AD0411CA16003F8015B22696361E4
:1019400093420BD22068A0420DD0016821604C6008
:10195000FFF71EFB00224262104638BD2068E36894
:10196000A0426361F1D1002038BD0028E2D06FF0C1
:10197000030038BDAFF30080AFF30080AFF3008009
:10198000F8B504460E46202383F31188FFF7C0F90B
:10199000E3690BB120469847A5682046314655B902
:1019A000FFF796FF071EF7DAFFF7CAF92B4683F316
:1019B00011883846F8BDA0692269013DA56010F87C
:1019C000017B9042A06124BFE068A061FFF7B8F9F5
:1019D000002383F311883846F8BD00BFAFF30080C1
:1019E0002DE9F0471E4604460D469046C769202360
:1019F00083F31188FFF78CF905EB080A05F101095B
:101A00004FF000080FB12046B847A5682046314680
:101A10005DB9FFF75DFF0028F7D0FFF791F92B467E
:101A200083F311884046BDE8F087A369013DA560B6
:101A300013F8012B09F8012C2069A361834224BF0C
:101A4000E368A361FFF77CF9002383F31188D14594
:101A500008F10108E6D0202383F31188FFF758F935
:101A600009F10109CEE700BFAFF30080AFF30080BA
:101A700010B4C361019B40608C18006082604161BA
:101A80008161C1600461036210BC7047AFF30080E4
:101A90002DE9F041202304468846164683F3118839
:101AA000FFF736F9A568204631465DB9FFF710FF0C
:101AB000071EF7DAFFF744F92B4683F311883846FF
:101AC000BDE8F0816369013DA56003F8018B2269DF
:101AD0006361934228BFE368E16928BF636109B18C
:101AE00020468847FFF72CF9002383F311881F460F
:101AF0003846BDE8F08100BFAFF30080AFF300804F
:101B000038B50446FFF7B4F9A3696269A0689A4240
:101B100016D0411CA16013F8015B2269A3619342B6
:101B20000BD22068A04206D0016821604C60FFF70C
:101B30002FFA00224262284638BDE368A361F0E72D
:101B40000028E6D06FF0020038BD00BFAFF3008080
:101B50002DE9F0479A46044688461646D0F81C9070
:101B6000202383F31188FFF7D3F80027A5682046C8
:101B70006B1E0DB3A360656918F8011B05F8011B06
:101B800022696561954224BFE2686261B9F1000F84
:101B900000D0C847FFF7D4F8002383F3118801373A
:101BA000013E14D0202383F31188FFF7B1F8A56814
:101BB00020466B1E002DDDD120465146FFF788FEE2
:101BC0000028D3D0FFF7BCF82B4683F311883846A2
:101BD000BDE8F087AFF30080AFF30080AFF3008083
:101BE00040F6BC5240F6B8534CF200010648C2F22F
:101BF0000002C2F20003C2F2010120F0070021F04E
:101C00000701106019607047FF560020AFF3008095
:101C100010B50446FFF72CF9074A0849136809680C
:101C2000E01D20F00700C91A88429ABF18181060FA
:101C30000023184610BD00BFBC0D0020B80D0020C9
:101C400010B52023044683F31188FFF761F820467E
:101C5000FFF7DEFF0446FFF773F8002383F31188D4
:101C6000204610BDAFF30080AFF30080AFF30080DB
:101C700040F6C053C2F2000341F641410022C0F6D3
:101C8000000103F1100019609A60DA60FFF740BCB0
:101C9000F8B5204E002818BF0646073106F110009F
:101CA00021F0070506F10804FFF7A2FC00E01C463E
:101CB0002368FBB15A689542F9D805F108019142B1
:101CC00015D84FF6F870CFF6FF70401B03EB010EEE
:101CD00082181868CEF8042058505D60C4F800E0FF
:101CE0001C4644F8086BFFF793FC2046F8BD1968C2
:101CF0002160F5E7FFF78CFC32684AB105F1080076
:101D0000904728B100F10804066045602046F8BD00
:101D10000024EAE7C00D0020AFF30080AFF300809D
:101D200070B50646A0F1080450F8080C00F108054B
:101D30001030FFF75DFC2B46AB421A6801D0A3427E
:101D400002D21AB1944201D31346F5E756F8041CA7
:101D500046F8082C1C6001F1080256F8085CA0182F
:101D6000A84209D05A6802F1080019188C4211D013
:101D7000BDE87040FFF74CBC4068A2580918083114
:101D800046F8041C46F8082C5A6802F10800191895
:101D90008C42EDD156F8040C56F8081C1218083283
:101DA00083E80600E4E700BFAFF30080AFF30080F4
:101DB00008B500F05DFE45F61000C0F6010001F028
:101DC000AFFA00F03DF800F0BBFA00F049FA00F07D
:101DD0001FFBBDE8084001F013BF00BFAFF3008058
:101DE000C368990F12D1826841689305880F9B0DD3
:101DF00040EA8303C1F3C231581CC2F303428B1C77
:101E000000FA03F0093A00FA02F07047012901D004
:101E1000002070478268C38802F03F0043EA004117
:101E20004A1C9002704700BFAFF30080AFF3008000
:101E30000A460BC801FA03F101F04ABBAFF3008078
:101E400001F0DEBCAFF30080AFF30080AFF30080A1
:101E50000123002103704160704700BFAFF3008091
:101E600038B504460D46202383F31188FEF750FF52
:101E7000AB8865602381204601F0D2FC02202070EF
:101E8000FEF75EFF002383F3118838BDAFF30080B7
:101E900070B5202306460D46144683F31188FEF7DD
:101EA00037FF30462946224601F04AFDFEF748FF3B
:101EB000002383F3118870BDAFF30080AFF300807F
:101EC0000379052B01D001207047806A4FF400721E
:101ED00048600A6000207047AFF30080AFF30080D5
:101EE000F0B5032383B00371044600F021FF002105
:101EF0000A46204600F064FF4FF4D57220460821C0
:101F000001AB00F095FF024670B901990120C1F3C1
:101F10000323834220637CD0204600F031FF02235C
:101F20002371012003B0F0BD0020014620630A4662
:101F3000204600F045FF256B0026334605F00F00D4
:101F4000C8F21006CCF21003012814BF35461D4616
:101F5000642620463721002201AB00F069FF0028EB
:101F6000DAD14EF20801019ACFF6FF511140002953
:101F7000D2D1204629212A4601AB00F039FF07467D
:101F80000028C9D1019B002B55DB013EC4D00A209B
:101F9000FFF79EF9204637213A4601AB00F048FF93
:101FA0000028B9D14EF208030198CFF6FF53034041
:101FB000002BB1D1204629212A4601AB00F018FFA1
:101FC00007460028A8D1019B002B34DB0A20FFF72D
:101FD0007FF9204637213A4601AB00F029FF00285F
:101FE0009AD14EF20801019ACFF6FF511140002913
:101FF00092D1204629212A4601AB00F0F9FE0028A3
:102000008AD1019B002B16DB0A20023EFFF760F904
:102010009FE72046372101AB00F00AFF00287FF43C
:102020007BAF4EF20801019ACFF6FF511140002913
:102030007FF472AF7FE75B0003D5206B40F01001A7
:10204000216300222046022104F1080300F0A8FFCA
:10205000024600287FF460AF2046032104F13803D4
:1020600000F0E6FE00287FF457AF04F11805204683
:102070000921A26B2B4600F093FF00287FF44CAFA0
:10208000204600F06DFE20460721A26B01AB00F058
:10209000CFFE00287FF440AF204610214FF400729D
:1020A00001AB00F0C5FE00287FF436AF4EF2080207
:1020B000019BCFF6FF521A40002A7FF42DAF206B10
:1020C00000F00F01012927D80121204600F060FE11
:1020D00020463721A26B01AB00F0AAFE00287FF456
:1020E0001BAF4EF20802019BCFF6FF521A40002AA6
:1020F0007FF412AF20460621022201AB00F098FEC9
:1021000000287FF409AF4EF208000199CFF6FF5086
:10211000084000287FF400AF2846FFF761FEA06268
:1021200000283FF4F9AE052222710020FAE600BF34
:1021300038B50579052D044601D0012038BD0823A6
:10214000037101F0E5F8257138BD00BFAFF30080E1
:1021500070B54E1E856AF618AE42044605D9406B2E
:1021600040F080016163012070BD0725057101F019
:1021700067F80523237170BDAFF30080AFF30080D3
:1021800070B54E1E856AF618AE42044605D9406BFE
:1021900040F080016163012070BD0625057100F0EB
:1021A000E7FF0523237170BDAFF30080AFF300801C
:1021B00010B5044682B001AB20460D21A26B00F0A1
:1021C00037FE4EF20803CFF6FF5338B9019A134099
:1021D000C2F3432113B9042909D002D2012002B06D
:1021E00010BD0729FAD80120FFF772F8E3E7184677
:1021F000F5E700BFAFF30080AFF30080AFF30080DE
:1022000038B50446202383F31188FEF781FD237936
:10221000022B18D004202071FEF792FD002383F3D7
:1022200011882046FFF7C4FF054620462DB900F06F
:10223000A7FD02212171284638BD00F0A1FD022230
:102240002271012038BDFEF77BFD002383F3118846
:10225000184638BDAFF30080AFF30080AFF30080C5
:1022600000F026BDAFF30080AFF30080AFF3008035
:1022700045F200720023C0F60102012102600171E3
:102280004363C36283627047AFF30080AFF30080A3
:1022900038B504460D46202383F31188FEF738FD38
:1022A0002046E56200F014FD02232371FEF748FD8D
:1022B000002383F3118838BDAFF30080AFF30080B3
:1022C0000C30FFF78DBB00BFAFF30080AFF3008091
:1022D0000C304FF0FF33FFF783BB00BFAFF300803C
:1022E0003030FFF735BC00BFAFF30080AFF30080A4
:1022F00030304FF0FF33FFF72BBC00BFAFF300804F
:102300000C30FFF73DBB00BFAFF30080AFF30080A0
:102310000C304FF0FF31FFF733BB00BFAFF300804D
:102320003030FFF7B5BB00BFAFF30080AFF30080E4
:1023300030304FF0FF32FFF7ABBB00BFAFF3008090
:1023400001F0D6BBAFF30080AFF30080AFF30080A5
:1023500070B545F220730546C0F60103044645F802
:10236000043B82B0656001250B46164604F154011A
:10237000257200F10C004FF482720094FFF7C0FA4E
:10238000009404F1300004F5AC714FF482723346CE
:10239000FFF76EFB02B070BDAFF30080AFF30080BB
:1023A00038B504460D46202383F31188FEF7B0FCB0
:1023B0002046294601F0B4FB02232372FEF7C0FC3D
:1023C000002383F3118838BDAFF30080AFF30080A2
:1023D00038B504460D46FEF74BFD63693BB104F189
:1023E0000C002946FFF79CFA00280BDB38BD201DA6
:1023F0000421FFF765F904F10C002946FFF790FA74
:102400000028F3DA201D8021BDE83840FFF758B9D5
:1024100001F016B9AFF30080AFF30080AFF3008096
:10242000002301220270436083600C30FFF770B814
:1024300038B504460D46202383F31188FEF768FC67
:102440002046656001F024F902232370FEF778FC32
:10245000002383F3118838BDAFF30080AFF3008011
:10246000F8B51D4604460F461646202383F311880F
:10247000FEF74EFC2B460325324639462046257092
:1024800001F05EF940F69C53C2F200030220996904
:10249000A160FEF7BDFDFEF753FC002383F3118816
:1024A000F8BD00BFAFF30080AFF30080AFF3008052
:1024B0000C30FFF79DB800BFAFF30080AFF3008092
:1024C000FFF7A6B8AFF30080AFF30080AFF3008052
:1024D00008B5FEF78DFC4FF4C043C4F20203074871
:1024E0001968026801F03D0199600AB1406890479F
:1024F000FEF79EFCBDE80840FEF7CABAE00D0020DA
:1025000010B5FEF775FC4FF4C043C4F2020308484F
:10251000196882688C0904F03D018C019C600AB145
:10252000C0689047FEF784FCBDE81040FEF7B0BAE3
:10253000E00D0020AFF30080AFF30080AFF3008028
:1025400010B5FEF755FC4FF4C043C4F2020308482F
:10255000196802690C0C04F03D010C049C600AB17E
:1025600040699047FEF764FCBDE81040FEF790BA62
:10257000E00D0020AFF30080AFF30080AFF30080E8
:1025800010B5FEF735FC4FF4C043C4F2020308480F
:10259000196882698C0D04F03D018C059C600AB1BC
:1025A000C0699047FEF744FCBDE81040FEF770BAE2
:1025B000E00D0020AFF30080AFF30080AFF30080A8
:1025C00008B5FEF715FC4FF4C043C4F202030748F8
:1025D0005968026A01F03D01D9600AB1406A90472A
:1025E000FEF726FCBDE80840FEF752BAE00D0020D9
:1025F00010B5FEF7FDFB4FF4C043C4F202030848D8
:102600005968826A8C0904F03D018C01DC600AB1D2
:10261000C06A9047FEF70CFCBDE81040FEF738BAE0
:10262000E00D0020AFF30080AFF30080AFF3008037
:1026300010B5FEF7DDFB4FF4C043C4F202030848B7
:102640005968026B0C0C04F03D010C04DC600AB10B
:10265000406B9047FEF7ECFBBDE81040FEF718BA60
:10266000E00D0020AFF30080AFF30080AFF30080F7
:1026700010B5FEF7BDFB4FF4C043C4F20203084897
:102680005968826B8C0D04F03D018C05DC600AB149
:10269000C06B9047FEF7CCFBBDE81040FEF7F8B9E1
:1026A000E00D0020AFF30080AFF30080AFF30080B7
:1026B00008B5FEF79DFB4FF4C843C4F20203074878
:1026C0001968026C01F03D0199600AB1406C9047B5
:1026D000FEF7AEFBBDE80840FEF7DAB9E00D0020DA
:1026E00010B5FEF785FB4FF4C843C4F20203084857
:1026F0001968826C8C0904F03D018C019C600AB160
:10270000C06C9047FEF794FBBDE81040FEF7C0B9DF
:10271000E00D0020AFF30080AFF30080AFF3008046
:1027200010B5FEF765FB4FF4C843C4F20203084836
:102730001968026D0C0C04F03D010C049C600AB198
:10274000406D9047FEF774FBBDE81040FEF7A0B95E
:10275000E00D0020AFF30080AFF30080AFF3008006
:1027600010B5FEF745FB4FF4C843C4F20203084816
:102770001968826D8C0D04F03D018C059C600AB1D6
:10278000C06D9047FEF754FBBDE81040FEF780B9DE
:10279000E00D0020AFF30080AFF30080AFF30080C6
:1027A00008B5FEF725FB4FF4C843C4F202030748FF
:1027B0005968026E01F03D01D9600AB1406E904740
:1027C000FEF736FBBDE80840FEF762B9E00D0020D9
:1027D00010B5FEF70DFB4FF4C843C4F202030848DE
:1027E0005968826E8C0904F03D018C01DC600AB1ED
:1027F000C06E9047FEF71CFBBDE81040FEF748B9DD
:10280000E00D0020AFF30080AFF30080AFF3008055
:1028100010B5FEF7EDFA4FF4C843C4F202030848BE
:102820005968026F0C0C04F03D010C04DC600AB125
:10283000406F9047FEF7FCFABDE81040FEF728B95C
:10284000E00D0020AFF30080AFF30080AFF3008015
:1028500010B5FEF7CDFA4FF4C843C4F2020308489E
:102860005968826F8C0D04F03D018C05DC600AB163
:10287000C06F9047FEF7DCFABDE81040FEF708B9DC
:10288000E00D0020AFF30080AFF30080AFF30080D5
:102890002DE9F00F40F660658AB0C2F2000546F2FD
:1028A00040400295783046F21045C4F20205A0F58A
:1028B00080600495C4F2020046F240450390C4F2E1
:1028C000020546F228400695C4F2020046F2704521
:1028D0000590C4F2020546F258400195C4F2020088
:1028E00046F2B8450790C4F2020546F288400995C1
:1028F000C4F20200029D089046F2100B002040F640
:10290000E05346F2280A46F2400946F2580846F2D9
:10291000700C46F2880746F2A006C2F20003286057
:10292000C4F2020B039DCBF80000C4F2020AC4F209
:102930000209C4F20208C4F2020CC4F20207C4F293
:1029400002061860CAF800009860C9F80000186113
:10295000C8F800009861CCF80000186238609862EE
:10296000306018632860049D98632860059D186492
:102970002860069D98642860079D186546F21044FB
:1029800028606034019D986530342860C4F20204E8
:10299000089D18664FF4C0414FF4C8422860C4F245
:1029A00002019866C4F202022060099C18674FF089
:1029B000FF35206098678D60CD609560D5600AB066
:1029C000BDE8F00F704700BFAFF30080AFF30080A9
:1029D0002DE9F041244E447A3768012505FA04FCBC
:1029E0001CEA070F3AD1214D4CEA070705EBC40852
:1029F00017F0FF0F45F83420C8F80430376007D0CF
:102A00004FF46053C4F202031C6B44F400161E63BF
:102A100017F47F4F19D10468266826F01F0525603A
:102A2000276817F00105FBD1067A43683D2707FAAE
:102A300006F61E6021232560636192B1807A090148
:102A4000FEF78EF82846BDE8F0814FF46055C4F2D9
:102A500002052F6B47F480032B63DCE72846BDE8B3
:102A6000F0811046BDE8F081600E0020E00D0020EE
:102A70004FF46053C4F2020370B400224FF0FF34ED
:102A800019691C611A6159695C615A611E6A4EF2CA
:102A9000100166F080561E62CEF200011A6249F201
:102AA0003F054EF6F0505E6A5C62CEF200000724ED
:102AB000C0F202055A624D608A600C60C4684FF42F
:102AC0008051CEF2000144F08074C460086840F088
:102AD00001000860186C4FF4E041C4F2000140F0BE
:102AE00080501864086840F480700860196F01F421
:102AF0004070B0F5007F03D04FF4803119671A673A
:102B00004FF4E043C4F200035A6822F400705860A6
:102B100070BCFFF7BDBE00BFAFF30080AFF3008015
:102B20004FF460514FF4E043C4F20201C4F20003D9
:102B30004FF080524FF440400A6418600B6843F035
:102B400001020A6008684FF460538007C4F2020370
:102B5000F8D5196801F0F90200211A601846996049
:102B600082684FF4605312F00C0FC4F20203F7D1E5
:102B7000186840F480311960184602684FF46053B9
:102B80009203C4F20203F8D5596F41F0010058676F
:102B900019464A6F4FF460539007C4F20203F8D508
:102BA00045F20840C0F24070586019684FF4E042A6
:102BB00041F080701860C4F2000253685904FCD5DB
:102BC0004FF46051C4F202010A684FF46050920160
:102BD000C4F20200F8D54FF47053C4F202034FF46C
:102BE0001441C3F6080140F2057281601A608368DF
:102BF00043F002018160826802F00C014FF46053DF
:102C00000829C4F20203F6D1586C40F480425A6499
:102C1000596E41F480405866704700BFAFF30080A2
:102C200001F001038A0748BF43F002034A0748BF87
:102C300043F008030A0748BF43F00403CA0648BF2D
:102C400043F010038A0648BF43F020038A05426B15
:102C500048BF43F0400342EA03014163704700BFAD
:102C600038B5FEF7C5F8202383F311880C4CFEF726
:102C700087F84FF43053C4F20103E06B0025DD63A5
:102C800010B1FEF785F9E563FEF792F8002383F3B0
:102C90001188FEF7CDF8BDE83840FDF7F9BE00BF5A
:102CA000640E0020AFF30080AFF30080AFF300802C
:102CB00010B540F66464C2F200042046FFF7D8FA6B
:102CC00002480023E363606410BD00BFC4570108DD
:102CD000027945F22043C0F6A303012A10B5044649
:102CE000036409D04FF43050C4F2010000220260A6
:102CF0004260C262426210BD002213460921406C4C
:102D0000FFF766FE606C4FF432510368C4F20101B4
:102D10000722996031205A619021FDF721FF4FF47D
:102D20006050C4F20200416C41F400634364D9E78F
:102D30004FF43053C4F2010378225A60186840F00F
:102D4000030119605A6842F4807058600A20FEF747
:102D5000BFBA00BFAFF30080AFF30080AFF30080D5
:102D60004FF43053C4F201035A6822F0FF00586058
:102D7000704700BFAFF30080AFF30080AFF3008077
:102D80004FF43053C4F2010300225A601A607047B6
:102D90004FF43053C4F2010301295A6822F4C050A1
:102DA00007D001D2586070470229FCD140F480500E
:102DB000F8E740F400615960704700BFAFF300804E
:102DC0004FF43053C4F2010341F480619A60184615
:102DD000D960426B4FF430531206C4F20103F8D5A8
:102DE00080219963704700BFAFF30080AFF300808C
:102DF00038B54FF43055C4F2010541F48861AA603A
:102E0000E960696B4FF4305211F04504C4F20102DD
:102E1000F7D0946311F0040403D15169204619607E
:102E200038BDFFF7FDFE012038BD00BFAFF30080C5
:102E300038B54FF43055C4F2010541F48861AA60F9
:102E4000E960696B4FF4305211F04504C4F201029D
:102E5000F7D0946311F0050403D15169204619603D
:102E600038BDFFF7DDFE012038BD00BFAFF30080A5
:102E70002DE9F047202307468846914683F31188C1
:102E8000FDF746FF4FF43053C4F20103D86B00281E
:102E900030D14FF43054C4F20104636B13F48074E6
:102EA0002FD07E6C3568286810F00104FBD1317A90
:102EB00072684FF43055C4F201053D2040F2FF73B3
:102EC00000FA01F1C0F2C0031160AB63EC62FDF7E0
:102ED00037FF234683F31188B8F1010F07D938462D
:102EE0000C2122464B46BDE8F047FFF7A1BF204624
:102EF000BDE8F08707498A690220FA63FEF788F87F
:102F0000C7E7FDF71DFF234683F311880120BDE8C5
:102F1000F08700BF9C0D0020AFF30080AFF300806E
:102F20002DE9F047466C4FF43053347A3568C4F2DB
:102F3000010307464FF03D0E7068D3F834C00EFA17
:102F400004F404602B6823F01F04894690462C602B
:102F5000296811F00104FBD1327A4FF43055C4F2E4
:102F600001053D2140F2FF7301FA02F2C0F2C003F5
:102F700002606146AB633846EC63EC62FFF750FEDB
:102F8000B9F1010F07D938460C2122464346BDE866
:102F9000F047FFF74DBFBDE8F08700BFAFF30080FB
:102FA00038B54FF43055C4F2010541F49861AA6078
:102FB000E960696B4FF4305211F04504C4F201022C
:102FC000F7D0946311F03F0409D1106A1860D169F9
:102FD00059609069986052692046DA6038BDFFF701
:102FE0001FFE012038BD00BFAFF30080AFF30080AB
:102FF0002DE9F0414FF43054C4F201044FF41F5551
:10300000C0F2090582B065620F46054690461E462D
:10301000FFF7CEF818B1012002B0BDE8F0816B6C6B
:103020002A6C186873029908C0F80C80416002602D
:10303000016840F2FF7241F001010160C0F2C0027C
:1030400040F22A30A263E063A3629B23E3622C6B0D
:10305000E30658BF7F02012E01AC28461AD912217F
:103060003A462346FFF7E4FE68B94EF20801019A9A
:10307000CFF6FF51114031B9284631462246FFF7BD
:10308000F7FE0028C8D0284631462246FFF748FF01
:103090000120C1E711213A462346FFF7C9FE002867
:1030A000E3D0F0E7AFF30080AFF30080AFF3008030
:1030B0002DE9F0414FF43054C4F2010448F6805534
:1030C000C0F25B0582B065620F46054690461E461B
:1030D000FFF76EF818B1012002B0BDE8F0816B6C0B
:1030E0002A6C18687302990842F04002C0F80C80FC
:1030F00041600260016840F2FF7241F0010101602D
:10310000C0F2C00240F21A30A263E063A3622C6BEB
:10311000E30658BF7F02012E01AC284620D91921B1
:103120003A462346FFF784FE98B94EF20803019A07
:10313000CFF6FF53134063B94FF43051C4F201018D
:103140009920C862224628463146FFF791FE0028A2
:10315000C2D0284631462246FFF7E2FE0120BBE7F7
:1031600018213A462346FFF763FE0028DDD0F0E73A
:1031700012F0030F2DE9F047154680460C461E4617
:1031800052D0002B4DD003EB0109CE434E44012316
:10319000274A1E40FFF72CFF00283FD1284624492C
:1031A0004FF40072013411F0BBF84C4505F5007581
:1031B00037D02EB3404621461D4A0123FFF718FFA2
:1031C00060BB28461A494FF40072013411F0A8F888
:1031D0004C4505F5007513D123E0284611F0A0F801
:1031E0003146134A01234046FFF702FF4FF40072B5
:1031F0000F49BD1890B9384611F092F84C4510D0DF
:10320000214601230A4A661C4046F418FFF7F0FEE7
:103210004FF400720649AF180028DED00120BDE847
:10322000F0870020BDE8F087BDE8F047FFF7E0BE7B
:10323000AC0E0020AFF30080AFF30080AFF300804E
:1032400012F0030F2DE9F041154607460C461E46C5
:1032500057D0002B52D003EB01082C48CB4311462A
:103260004FF4007203EB080611F05AF83846214675
:10327000264A012306F0010605F50075FFF718FF41
:10328000002838D10134444538D0F6B129464FF4EE
:1032900000721E4811F044F8384621461B4A0123AB
:1032A00005F50075FFF704FF28BB013444450CD138
:1032B00024E0164811F034F838463146134A012309
:1032C000FFF7F6FEB8B9444518D029464FF400720E
:1032D0000E4811F025F8661C214601230B4A38469A
:1032E000F418FFF7E5FE05F500754FF40072294666
:1032F000AD180028DDD00120BDE8F0810020BDE838
:10330000F081BDE8F041FFF7D3BE00BFAC0E002056
:1033100000207047AFF30080AFF30080AFF3008070
:103320004FF46053C4F202031A6B6FEA52216FEA42
:1033300041221A63196D6FEA51226FEA4221196521
:1033400000234168C4F202034FF48062596081682F
:103350009960C168D96001695961416919628169DF
:10336000596201681960016AC4F202024FF40063F5
:103370005160416A9160816AD160C16A5161016B9B
:103380001162416B5162C1691160C4F20203C26BE8
:103390005A60016C9960426CDA60816C5961C26C50
:1033A0001A62016D5962816B4FF440621960816D40
:1033B000C4F202024FF480535160C16D9160016EFE
:1033C000D160416E5161816E1162C16E5162416D79
:1033D0001160C4F20203426F5A60816F9960C26F3C
:1033E000DA60D0F880105961D0F884201A62D0F8E1
:1033F00088105962016F4FF4A0521960D0F89010F4
:10340000C4F202024FF4C0535160D0F8941091609E
:10341000D0F89810D160D0F89C105161D0F8A0106D
:103420001162D0F8A4105162D0F88C101160D0F85D
:10343000AC10C4F202034FF4E0525960D0F8B0105F
:103440009960D0F8B410D960D0F8B8105961D0F8AC
:10345000BC101962D0F8C0105962D0F8A810C4F29C
:1034600002021960D0F8C8305360D0F8CC109160D7
:10347000D0F8D030D360D0F8D4105161D0F8D83023
:103480001362D0F8DC105162D0F8C4104FF400532E
:103490001160D0F8E420C4F202035A60D0F8E810BA
:1034A0009960D0F8EC20DA60D0F8F0105961D0F8CB
:1034B000F4201A62D0F8F8105962D0F8E0001860D1
:1034C000704700BFAFF30080AFF30080AFF3008020
:1034D0002DE9F00F002302F00307C2F38006C2F3C8
:1034E000C105C2F341144FF00F09C2F3C3124FF0EC
:1034F000010A38E0D0F820B02BEA0C0C4CEA08089E
:10350000C0F82080D0F804B00AFA03FC2BEA0C08BB
:1035100048EA060BC0F804B04FEA430C4FF0030B27
:10352000D0F808800BFA0CFC6FEA0C0C0CEA0808C7
:1035300048EA0508C0F80880D0F80C800CEA0808B2
:1035400048EA0408C0F80C80D0F800800CEA080CA7
:103550004CEA070CC0F800C049081AD07600AD004C
:10356000A400BF00013303F0070C4FEA8C0C11F0EC
:10357000010F02FA0CF809FA0CFCEDD0072BB9D9AF
:10358000D0F824B02BEA0C0C4CEA0808C0F82480D0
:10359000B8E7BDE8F00F7047AFF30080AFF30080ED
:1035A00011F00C0F00D17047FDF732BAAFF3008075
:1035B00011F00C0F38B504463DD1606A02681368FB
:1035C00023F01F0111601568E907FCD4057A216A10
:1035D00043680A683D2000FA05F01860136823F07C
:1035E0001F0010601368DB07FCD46368087A4A6820
:1035F0001B683D2101FA00F11160CBB1042020705D
:10360000204698472278042A12D0202383F3118879
:10361000FDF7B6FBA16829B10022A26008464A6204
:10362000FDF7B6FCFDF7C4FB002383F3118838BD1A
:1036300002232370E9E7FDF7EBF9BEE7AFF3008063
:1036400038B541F2AC0341F2B004C2F20004C2F258
:1036500000034FF6FF7220461A80FEF7E1FE09498B
:103660004FF4605016224623C4F2000001F10C050D
:10367000C0F20102C0F20103E06121626562A26250
:10368000E36238BD64570108AFF30080AFF30080F8
:103690000378012B10B5044627D0C36960684289BE
:1036A000A06A02F4006189B2B9B1E16A20F4F04085
:1036B00021F4F04140F4205041F42051A062E16235
:1036C00042F441720020072118801A8099801A88DC
:1036D00090B240F04001198010BDE16A20F4F04042
:1036E00021F4F041A062E162EAE71148844209D086
:1036F000206A616AE3690068096803F10C0282606C
:103700008A60CBE70A210B4A206A2346FFF760F95B
:10371000094A606A0A212346FFF75AF94FF46051BB
:10372000C4F202010A6C42F480430B64E0E700BF7C
:10373000B0100020B1350008A1350008AFF30080BB
:10374000F0B4046A476A866AC56A24683868E36028
:1037500046F4806645F4806561602660C260416021
:103760000560236843F001012160026842F0010313
:103770000360F0BC704700BFAFF30080AFF3008080
:1037800038B51E4DFDF734FB2B691A69DC6814400F
:10379000A4B2E1B204F00200C94382B21961002A66
:1037A00027D104F0040082B2002A1DD104F00800E1
:1037B00082B2A2B904F0100082B25AB9E30703D56D
:1037C0006A680E4893689847FDF732FBBDE83840B9
:1037D000FDF75EB96B680948996A8847EEE76B6840
:1037E0000648196A8847E5E76B680448996988477D
:1037F000DCE76B68284619698847D2E7E0100020AB
:1038000010B541F2E004C2F200042046FEF720FBAE
:103810004FF48063C4F20003236110BDAFF3008056
:103820000378012B70B5044661D0036900221A6049
:103830005A639A63DA631A645A626268E6681568C2
:103840002489D168D06AB6FBF5F5013D013C01F051
:103850000F01ADB2A4B201299D62DC62586003D0B1
:1038600002290CBF03210021506900F00F04012C34
:1038700022D0022C1ED0D06900F00F04012C22D0DF
:10388000022C2FD0506A00F00F04012C22D0022C01
:1038900023D0146B9068196224F0FF02002818BF2F
:1038A00042F001020121002059611861DA6085228D
:1038B0001A6070BD41F02001D06900F00F04012CA6
:1038C00041F01001DCD141F48071506A00F00F0426
:1038D000012CDCD141F48051DBE741F4005141F48B
:1038E0008051D6E741F4007141F48071EDE7104852
:1038F000844205D0236946F668019961D9619CE745
:103900004FF46051C4F202011D200D6C45F0020617
:103910000E640B6A002543F002020A620D627021F8
:10392000FDF71EF94FF43D40C0F20150E060E1E7C1
:10393000E0100020AFF30080AFF30080AFF3008011
:1039400010B44468036904EBC10001F10C0403EBFB
:1039500084040069626048B10220DA6800FA01F16B
:10396000114203D10A43C843DA60186110BC7047A2
:103970004FF48843C4F200039A8990B240F080016A
:1039800099817047AFF30080AFF30080AFF3008000
:10399000F8B5534EFDF72CFAD6F85C52AF892C8857
:1039A000A4B204F4807398B2BFB2002861D120237E
:1039B00083F31188FDF7E4F904F0200293B25BB9B8
:1039C00028E0A9884648C9B2FEF702FD288884B2DB
:1039D00004F020039AB2EAB12307F2D004F0080001
:1039E00004F0020281B2002914BF8021002193B2A9
:1039F00014F0010F04F004043A4818BF41F020010C
:103A0000A2B20BB141F040010AB141F48071FDF75F
:103A100057FED6E7FDF7CCF9002383F3118807F0B2
:103A2000800188B220B104F080039AB2002A33D119
:103A300004F04004A4B22CB9FDF7FAF9BDE8F8404F
:103A4000FDF726B8202383F31188FDF799F9726CEE
:103A5000B16C23488A4231D04FF6BF723A404FF6DC
:103A6000BF71AA812980FDF7A3F9002383F3118890
:103A7000E2E7202383F31188FDF782F9301D4FF42C
:103A80000071FDF71DFEFDF793F9002383F3118804
:103A90004FF6FF6129808AE7202383F31188FDF721
:103AA0006FF91148FEF72CF800280FDB81B2A980CE
:103AB000FDF77EF9002383F31188B9E7836B002BB0
:103AC000CAD004301021FDF7FBFDC5E705480821E9
:103AD000FDF7F6FD27F0C00040F04003AB81E7E7BB
:103AE000F4100020F810002024110020AFF3008013
:103AF00010B541F2F404C2F2000443F671122046FC
:103B00000021C0F60002FEF723FC4FF48843C4F204
:103B10000003C4F85C3210BDAFF30080AFF3008047
:103B200038B5037A264C002918BF0C46012B0546F0
:103B30002CD04FF48050D5F85C322168C4F20100DB
:103B4000834233D04FF4A052C4F2010293422DD0ED
:103B50004DF68060C0F28020B0FBF1F18AB21A818C
:103B6000A288E088218942F4045240F0400080B2EB
:103B700041F0010142F02C02188292B289B2002079
:103B800099829A8118801A889B8838BD0D48854291
:103B9000CFD14FF46051C4F2020126200A6C42F4E6
:103BA00000330B64C021FCF7DBFFC2E74FF43D405C
:103BB000C0F20150B0FBF1F18AB21A81D0E700BF28
:103BC00000580108F4100020AFF30080AFF300802C
:103BD000FEF7A6BFAFF30080AFF30080AFF3008025
:103BE00001207047AFF30080AFF30080AFF3008097
:103BF00000207047AFF30080AFF30080AFF3008088
:103C0000704700BFAFF30080AFF30080AFF30080D8
:103C100008B50D4B1A7802B108BD0120187000F0EC
:103C200017F800F035F903F08BFE04F0A1F800F06E
:103C3000A7F807F0DDF900F0E3FA06F0A1FABDE815
:103C4000084004F045B900BF54130020AFF30080D2
:103C500008B5054B986900B108BDFEF7A9F8BDE8A5
:103C60000840FCF7CDBF00BF9C0D0020AFF30080E3
:103C7000034608B9FDF744BB421C0CD04FF47A72DE
:103C800002FB03F344F6D350C1F26200591EA0FBBD
:103C900001139A09501CFDF71BBB00BFAFF3008056
:103CA000034600B97047421C0CD04FF47A7202FBF5
:103CB00003F34DF68360C4F21B30591EA0FB0113C1
:103CC0009A0C501CFDF704BBAFF30080AFF30080EB
:103CD0008A42B8BF1146C260FDF782BBAFF30080D5
:103CE00008B50B4671B14A1C12D04FF47A7202FB30
:103CF00003F344F6D351C1F26201013BA1FB03126D
:103D000091090131FDF7D4FB013018BF012008BD36
:103D1000FDF78EFB012008BDAFF30080AFF30080FC
:103D200010B52023044683F31188FCF7F1FFA26845
:103D3000E3689A4202DA2046FDF7D2FBFDF700FA6B
:103D4000FCF7FEFF002383F3118810BDAFF3008062
:103D500030B4029D0C4638B119B1029530BCFDF764
:103D600077BA084630BC7047002908BF4FF480710D
:103D700030BCFDF70DBB00BFAFF30080AFF3008098
:103D8000704700BFAFF30080AFF30080AFF3008057
:103D90002DE9F047DFF88C80D8F8004006468946C8
:103DA000002C34D000270088BA4665682468B542E4
:103DB0002D8808BF0AF1010A854208BF0137002C8F
:103DC000F3D100207168FDF763FF0446B8B100210C
:103DD000726810F04DFBB568666035B12046494603
:103DE00052463B46A8470546A0B1D8F800304BB133
:103DF0000B4803681C60F16809B1204688472046DB
:103E0000BDE8F0870749064A0C601460F3E72746CF
:103E1000A246D6E72046FDF783FF2C46EFE700BF1A
:103E2000581300205C130020AFF30080AFF3008034
:103E30000A4B1B6810B46BB1002401E01B684BB146
:103E40005A6812888242F9D18C4203D01B6801342F
:103E5000002BF5D1184610BC704700BF5C13002042
:103E600051B10B6833B15A681188814202D01B6886
:103E7000002BF8D118467047014B1B68F2E700BFD2
:103E80005C130020AFF30080AFF30080AFF300803D
:103E9000704700BFAFF30080AFF30080AFF3008046
:103EA0000023436003607047AFF30080AFF30080EE
:103EB00038B5046805467CB1202383F31188FCF7EC
:103EC00027FF2C681CB1236800202B602060FCF7C2
:103ED00037FF002383F31188204638BDAFF30080FD
:103EE00038B505460C46202383F31188FCF710FFF4
:103EF00034B12B680022226043B1686804606C60B2
:103F0000FCF71EFF002383F3118838BD6C602C6022
:103F1000F6E700BFAFF30080AFF30080AFF300809F
:103F200010B489B102687AB1914201D10EE01A460B
:103F300013684BB19942FAD143680C688B42146004
:103F400008BF42600020086010BC70470A68002368
:103F500002600B60F8E700BFAFF30080AFF30080B2
:103F600038B505460C46202383F31188FCF7D0FEB4
:103F700028462146FFF7D4FFFCF7E2FE002383F337
:103F8000118838BDAFF30080AFF30080AFF300803D
:103F900030B583B00546186D0193134644F2A10273
:103FA0000C46C0F6000200922946224602F068FF45
:103FB00003B030BDAFF30080AFF30080AFF30080FB
:103FC00030B583B00546186D0193134644F2A10243
:103FD0000C46C0F6000200922946224602F050FF2D
:103FE00003B030BDAFF30080AFF30080AFF30080CB
:103FF000F8B5B0F84020038F044619B210B28842D9
:1040000003DAA3872287A4F84030658FB4F9322001
:104010002BB29A4229DCB4F93600984225DD268F6E
:10402000278E31B23AB2914202DA3E46278739B240
:10403000B4F84030A08E1AB207B2BA4216DA9142F2
:1040400013DCE18B11F0020016D0C6F10106F21864
:10405000A28720460AF05CFA20460AF049FAA18FAE
:104060004B1E98B2A0870028F6D1F8BD431E9BB224
:10407000A4F840301AB2E2E763892289608720877A
:10408000E3872046A2870AF02BFAE18BB4F8403090
:10409000268741F002006587E083D6E7AFF3008012
:1040A000F0B4049CB4F95A508D422ADCB4F95E5045
:1040B0008D4226DDB4F958508618AE4221DDB4F8A1
:1040C0005CC00FFA8CF7B8421BDAA84204DA401B36
:1040D0001218D2B2AE182846B742BCBFC0EB0C02D1
:1040E000D2B2802B0DD9451EB4F854302087501918
:1040F000A4F8400020466187A4F84830F0BCFFF7E0
:1041000077BFF0BC704700BFAFF30080AFF3008013
:10411000F8B5B0F84220438F044619B210B2884275
:1041200003DAE3876287A4F84230258FB4F93020A0
:104130002BB29A4235DCB4F93400984231DD638FFA
:10414000668E1AB237B2BA4202DA3346668732B2A4
:10415000B4F84260E08E31B207B2B94222DA91423D
:104160001FDB30D0E28B02F0020081B200291FD1A8
:104170000136F11A01222046E187A2870AF0B0F940
:1041800020460AF0C5F920460AF0B2F9E38F581E1E
:1041900081B2E1870029F6D12046BDE8F8400AF057
:1041A000AFB9F8BD411E8EB2A4F8426031B2D6E775
:1041B00020460AF0A5F9E28BB4F84260638F22F042
:1041C0000200E083D4E7E28B12F002030ED12089D3
:1041D000618963872387A087E18720460AF080F9F9
:1041E000E28B258742F002036687E38320460AF0CC
:1041F0008FF92046BDE8F8400AF07AB9AFF30080A5
:104200000348418811F0010100D07047FFF7C0BD9D
:1042100080670108AFF30080AFF30080AFF3008048
:1042200038B500F120050377002342774161C3834D
:1042300004462846FDF76CF92846FDF7D9F92046D3
:104240000AF036FA0446FDF7E3F9204638BD00BF10
:1042500010B5054C2368834200D010BD67200021B3
:10426000FFF7E6FD206010BD60130020AFF3008073
:10427000B0F90800704700BFAFF30080AFF30080D3
:10428000B0F90A00704700BFAFF30080AFF30080C1
:1042900080897047AFF30080AFF30080AFF30080F8
:1042A000F8B5044600F120000D461F461646FDF7FE
:1042B0009FF9B4F930302587AB426687A4F848707F
:1042C0000BDCB4F93400A84207DDB4F93210B14276
:1042D00003DCB4F93620B2420FDCE18B01F00202BC
:1042E00093B233B120460AF00BF9E08B20F00201C3
:1042F000E183BDE8F840FDF78BB9E38B13F00200D2
:104300000ED12189628960872087A1872046E287B4
:104310000AF0E6F8E38B258743F002006687E08326
:1043200020460AF0F5F820460AF0E2F8D5E700BF8B
:104330002DE9F04F83B00446BDF93080BDF83490CC
:10434000164600F120000D461F46FDF751F946457F
:1043500025876687A4F84070A4F84280A4F84890A6
:10436000294600F0F081BD4200F0F1815ADDC81B02
:10437000464583B24FF6FF7759DCC6EB080081B2A1
:104380000FFA83FB0FFA81FAD3454FF001085ADB8D
:104390004FEA4A0A98B21FFA8AF3191A8EB2321AF1
:1043A000BBF1000FB6B21FFA82FA2ADB1BF0010F35
:1043B0004FF0000900F0B580B4F93000A84210DCDD
:1043C000B4F93410A9420CDDB4F83A90B4F93200D3
:1043D0000FFA89F2904204DCB4F93610914200F3EE
:1043E000BA81310400F1A381628F5644ED1908EBC4
:1043F0000200B6B2258760874FF00109CB4580F2F5
:104400008E80E38B03F0020081B231B120460AF0C6
:1044100077F8E28B22F00203E38303B0BDE8F04FAC
:10442000FDF7F6B87A1A0127464593B2A5DDC8EB29
:1044300006081FFA88F10FFA83FB0FFA81FAD345B9
:104440004FF6FF78A4DA4FEA4B0B8AB21FFA8BF3D0
:10445000C2EB03091FFA89F1881ABAF1000F1FFA9B
:1044600081F91FFA80FBCCDB00221AF0010F00F06B
:10447000AC80B4F93020AA420CDCB4F93410A94263
:1044800008DDB4F93200B04204DCB4F93620B2429F
:1044900000F3828119F4004F40F04E81208F0BEB26
:1044A000090C391846441FFA8CF9218766870122C6
:1044B000924580F28680A4E7628F5644ED1908EB9E
:1044C0000200B6B22587608709F1010C1FFA8CF94A
:1044D0000FFA89F2934594DBB4F93850B4F93000FF
:1044E000A8420EDCB4F93410A9420ADD618FB4F998
:1044F00032000AB2904204DCB4F93600904200F374
:10450000F280320427D4628F5644E81908EB020186
:10451000B6B22087618709F101091FFA89F9B4F958
:104520003850B4F93020AA420EDCB4F93400A84265
:104530000ADD618FB4F932000AB2904204DCB4F9AA
:104540003600904200F387803004B5D59919ED19F3
:104550008EB22587B8E79A19ED1996B22587DAE762
:10456000218FD944781846441FFA89F92087668735
:10457000013295B229B28A45FFF643AFB4F938202B
:10458000B4F93000B4F93A6090420BDCB4F934105D
:10459000914207DDB4F93200B04203DCB4F93610C1
:1045A000B1427CDC19F4004F29D1208F0BEB090CB0
:1045B0003A1806EB08011FFA8CF92287618701354A
:1045C000AAB2B4F93850B4F93A60B4F93000A8424C
:1045D0000BDCB4F93410A94207DDB4F93200B04263
:1045E00003DCB4F93610B1420FDC19F4004FB7D038
:1045F00003EB090546441FFA85F96687B8E7994435
:1046000046441FFA89F96687D9E7E08B10F002016A
:1046100014D16089B4F808C0E08761872187A4F8C5
:104620003CC020460192009309F05AFFE38B258796
:10463000019A668743F00205009BE58320460192BC
:10464000009309F065FF204609F052FFB4F93A6083
:10465000009B019AC9E7E28B12F0020214D1608933
:10466000B4F808E0E08762872287A4F83CE020469F
:104670000191009309F034FFE38B0199258743F002
:104680000205009B6187E5832046009309F040FF07
:10469000204609F02DFFB4F93850009B54E7E08B19
:1046A00010F0020114D16089B4F808E06187218715
:1046B000E087A4F83CE020460192009309F010FF47
:1046C000E38B019A668743F00201009B2287E18316
:1046D0002046009309F01CFF204609F009FFB4F9B9
:1046E0003A60009B5EE7E28B12F0020214D160890F
:1046F000B4F808E0E08762872287A4F83CE020460F
:104700000191009309F0ECFEE38B0199258743F0BA
:104710000205009B6187E5832046009309F0F8FEBF
:10472000204609F0E5FEB4F93850009BE9E69919F6
:10473000ED198EB225875FE603EB090E46441FFA9A
:104740008EF96687B3E62046FFF752FC59E620460D
:10475000FFF7DEFC55E6E08B10F0020211D1208954
:104760006189A08762872287E1872046009309F04C
:10477000B7FEE38B258743F00205009BA4F83A902F
:10478000E5832046009309F0C3FE204609F0B0FE01
:10479000B4F93850009B24E6E18B11F0020210D1ED
:1047A0002089618962872287A087E187204600935C
:1047B00009F096FEE38B258743F00202009B668793
:1047C000E2832046009309F0A3FE204609F090FE04
:1047D000B4F93A60009B5DE6AFF30080AFF3008070
:1047E00070B5044600F120000D46FCF701FF238957
:1047F0006289A4F84850002060872087A38720465C
:10480000E28712FB03F509F06BFE204609F080FEFB
:10481000B5B1691E0D46204601F0010609F068FE9B
:1048200075B126B1204609F063FE013D08D020464F
:1048300009F05EFE013D204609F05AFE013DF6D129
:10484000204609F05DFEBDE87040FCF7E1BE00BF08
:104850002DE9F843044600F120000E461D46174698
:10486000BDF92080BDF82490FCF7C2FEB4F93030C9
:1048700026879E426787A587A4F83E80A4F84890C3
:1048800005DAF61A75192DB2A58723871E46B4F9E5
:104890003200874207DA3F1AB8440FFA88F8A4F8C2
:1048A0003E8060870746A38E71191AB2914202DDDD
:1048B0009D1B2DB2A587E08EB84403B29845C4BFB6
:1048C000C7EB0007E787002D2CDDE38F19B2002925
:1048D00028DDE28B02F0020081B2002926D12046B9
:1048E00013FB05F509F0FCFD204609F011FEB5B1FA
:1048F000013D2E46204605F0010509F0F9FD76B18F
:1049000025B1204609F0F4FD013E08D0204609F00B
:10491000EFFD013E204609F0EBFD013EF6D12046B9
:1049200009F0EEFDBDE8F843FCF772BE204609F041
:10493000E7FDE28BB4F93C50E38F22F00200E08304
:10494000CDE700BFAFF30080AFF30080AFF300808E
:104950002DE9F04F83B004461D46109BBDF9309001
:10496000BDF93480BDF938A0BDF93C60019300F178
:1049700020000F469346FCF73BFEB4F93020BA42C4
:1049800009DDBFB291B2781ACB1B451998442DB2FC
:104990000FFA88F81746B4F9320058450BDD82B299
:1049A000C2EB0B0B02EB0A01D944CB1B0FFA89F9BE
:1049B0000FFA83FA8346A28EE38E781911B28842E9
:1049C000C4BFC7EB020215B218B20BEB0902824258
:1049D00008EB0501C4BFCBEB03030FFA83F9B14227
:1049E000C4BFC8EB06052DB2002D42DDB9F1000FA2
:1049F0003FDDABB2A587019DA4F83E90D91909EB24
:104A00000B0EF31A204606FB0A862787A4F83AB055
:104A10000FFA8EF80FFA83F905EB460A0EB209F089
:104A20005FFD204609F074FDC345A4F83AB0B8BF55
:104A30004FEA49091ADAB74227870FDA554635F89F
:104A4000022B2046A4F8482009F052FD208F411C7B
:104A50008BB21AB296422387AA46F0DC608F411CC3
:104A60008BB21AB290456387CA44E4DC204609F051
:104A700047FD03B0BDE8F04FFCF7CABDAFF30080BF
:104A80002DE9F0410D46044600F1200016461F4670
:104A9000BDF91880FCF7ACFD002D2CDB002E25DBCA
:104AA000002F1FDDB8F1000F1CDD23891AB29542DB
:104AB00018DA608901B28E4214DA7F19BFB208EBAE
:104AC000060C1FFA8CF80FFA87FE7245A8BF3B460A
:104AD0000FFA88F2914225866686A386A4F836806E
:104AE00000DAE086BDE8F041FCF792BDB0440FFA71
:104AF00088F80026D4E77F193FB20025CEE700BF33
:104B000070B504460D4600F120001646FCF770FD16
:104B1000012D2587E66406D0204609F031FDBDE869
:104B20007040FCF775BDB6B2B6F57A7F17D040F28B
:104B3000E9339E4208D1B4F90820B4F90A00824250
:104B4000B4BF5A210021E164204609F019FD2189F2
:104B50006289A186002323866386E286DFE7B4F9B3
:104B60000820B4F90A309A42ACBF5A200020E06411
:104B7000EAE700BFAFF30080AFF30080AFF300803F
:104B800010B5044682B001210022FFF7B9FFB4F945
:104B90000A00B4F90830009000210A462046FFF7C9
:104BA0006FFF20464FF6FF71FFF71AFE034B1A689E
:104BB0000AB102B010BD1C60FBE700BF601300200B
:104BC0002DE9F843002B164604460D46BDF920207A
:104BD000BDF824804DDD002A4BDD4F1EF81806F18C
:104BE000FF3907B209EB020104F120000FFA81F945
:104BF000FCF7FEFC7B1B022BA4F848802587668708
:104C00001BDDA4F840702046FFF7F2F94E450BD0AB
:104C10002587A4F83A90A4F840702046FFF7E8F9F9
:104C2000C6EB0902022A26DCE18B01F002039AB2EC
:104C3000BAB9BDE8F843FCF7EBBCA4F842902046B3
:104C4000FFF766FABD42EFD027876687A4F8429047
:104C50002046FFF75DFAE18B01F002039AB2002AC9
:104C6000E7D0204609F04CFCE08B20F00201E18304
:104C7000DFE7BDE8F883013609F1FF300FFA80F96C
:104C800036B2204625876687A4F84290FFF740FA9F
:104C9000DAE700BFAFF30080AFF30080AFF300802E
:104CA0002DE9F04F87B09B46119BBDF94090129DB6
:104CB000BDF84CA09DF85060059304460F4600F1E6
:104CC00020009046FCF794FCB8B200EB0B011FFAF1
:104CD00088F209B202EB090E012E2565A4F858707E
:104CE000A4F85A80A4F85C10A4F85EE0A4F854A0DC
:104CF0002AD0022E02D02B7BC01801B26B7A059805
:104D0000039409F1010CC3EB0C09009009EBD9796C
:104D10001148002302EB69020193029012B233465C
:104D2000284602F09DF9E18B01F0020293B233B103
:104D3000204609F0E5FBE08B20F00201E18307B09B
:104D4000BDE8F04FFCF764BC0BF1010B0BEBDB7B18
:104D500000EB6B0109B2D1E7C13F0008AFF300805F
:104D60002DE9F04F8BB004469DF8646015980896C5
:104D70000D4698461699BDF85C300990164604F128
:104D80002000AAB2BDF95070BDF860B0069104933E
:104D90000792FCF72DFC0799B4F93030A4F83C8059
:104DA0001FFA88F000EB010A0699E7871FFA86F9D7
:104DB000BAB22165049925870FFA8AFA02EB090C29
:104DC0009D42A4F858506687A4F85A60A4F85CA0E5
:104DD000A4F85EC0A4F85410A4F848B0A4F856B0E3
:104DE00080F28780079D2387E91A401801B2A187C6
:104DF0001D46B4F932309E4279DAC3EB09069019A8
:104E000002B2E28763871E46A38E05EB010E18B23D
:104E1000864502DD5D1B29B2A187E38EB21818B268
:104E20008242C4BFC6EB0306E68700294EDDE58F4C
:104E30002BB2002B4ADDE28B02F0020083B2002B82
:104E400063D1204615FB01F509F04AFB204609F025
:104E50005FFBB5B16B1E1E46204603F0010509F04D
:104E600047FB76B125B1204609F042FB013E08D050
:104E7000204609F03DFB013E204609F039FB013E8A
:104E8000F6D1204609F03CFB089A012A33D0022AC9
:104E900007D00699079891F80CA000EB0A030FFAC7
:104EA00083FA069D0999687A009101373B1A03EB52
:104EB000D3771B490394002009EB6702019002910C
:104EC0002846514612B2089B02F0CAF8E38B03F061
:104ED000020290B230B1204609F012FBE18B21F0C2
:104EE0000203E3830BB0BDE8F04FFCF791BB3A46F9
:104EF0008AE741467DE708F10108079D08EBD8786D
:104F000005EB68020FFA82FACBE7204609F0F8FABF
:104F1000E28BB4F93C10E58F22F00200E08390E7C9
:104F2000913F0008AFF30080AFF30080AFF3008043
:104F3000052916D8DFE801F0090C12150306807A5E
:104F400000B27047C07A00B27047407A00B2704732
:104F5000427A437BD11A88B200B27047807B00B29C
:104F60007047002000B27047AFF30080AFF30080BD
:104F7000034628B1002208461946134602F000B83D
:104F8000704700BFAFF30080AFF30080AFF3008045
:104F9000F0B400F4FC67531CFC1001F4FC6C00F44A
:104FA0007845C2F5807204FB03F792B2C6002D1259
:104FB00001F478444FEAEC0005FB03F500FB0270B6
:104FC000F6B22412C90006FB03F304FB0254C9B273
:104FD000400901FB023200F4FC6004F478431843FA
:104FE000C2F3C4210843F0BC704700BFAFF3008098
:104FF00003780A7823B9D2F1010038BF0020704746
:105000002A2B06D0934214D143784A7801300131DB
:10501000F0E742B14378934202D04A780131F8E791
:1050200001301346E6E74078D0F1010038BF002098
:1050300070470020704700BFAFF30080AFF30080DF
:1050400070B5064601F044FF044610B90AE0246832
:1050500044B1656830462968FFF7CAFF0028F6D0DA
:10506000284670BD01F034FF044638B901F030FF26
:105070004568284670BD2468002CF7D06568304626
:105080006968FFF7B5FF0028F5D0284670BD00BF5E
:1050900090F90F20002A00DB704700218161FCF7A6
:1050A0003FBE00BFAFF30080AFF30080AFF30080DE
:1050B00000230380704700BFAFF30080AFF3008090
:1050C000F8B5044600292AD0174AC1604FF6FF718F
:1050D0001046A180226148F2010602F1140707E0A0
:1050E000E06806F08DF820691430B84220610AD2D9
:1050F0000368204698470021B0420546F0D00304DB
:1051000003D42846F8BD00222280E06806F028F883
:105110000021E1606180216161612846F8BD48F2AB
:1051200005052846F8BD00BF00080020AFF3008049
:10513000036910B504460BB159688847E06806F06A
:105140000FF80020208060802061606110BD00BFEA
:10515000038823B10069003018BF0120704718464A
:10516000704700BFAFF30080AFF30080AFF3008063
:1051700081807047AFF30080AFF30080AFF3008011
:1051800030B50C6985B07CB1BDF920500095BDF9F2
:1051900024500195BDF928500295BDF92C50039576
:1051A000E468A04705B030BD48F20100FAE700BF4F
:1051B0000020FCF76DBD00BFAFF30080AFF30080AF
:1051C0000846FCF7ADBD00BFAFF30080AFF3008031
:1051D0002DE9F0414769054697F826E097F82760E2
:1051E000B88BF98B3A8C7B8C3C6987F83CE082B0B9
:1051F00087F83D60F887A7F84010A7F84220A7F885
:10520000443044B90DE0E868266905F0E9FF8642BC
:105210002AD0A46A2CB1E868266905F0E1FF86422D
:10522000F1D900247C61E86805F0DAFF07F1460651
:10523000F86287F82640BC843C850122E8680DF1BD
:10524000060105F09DFF0128024622D19DF80600C7
:105250002C2815D03B281FD0212823D048F2030644
:10526000304602B0BDE8F08126460FCE07F11C059E
:105270000FC596E80F00002685E80F007C61EFE778
:105280000922E86807F1460105F07AFF092800F0D5
:10529000D18048F20206E3E73E78F2072AD44FF6BF
:1052A000FF76DDE7E8680DF1060105F069FF0128EA
:1052B000EFD19DF80610F9297DD0FF292AD00906E3
:1052C000CCD50DF107080DE09DF80730002BB4D0C8
:1052D000EC68204605F084FF9DF8072081182046E1
:1052E00005F08EFF01224146E86805F049FF0128DC
:1052F000EAD0CEE706F00200C3B223B97A88002ACA
:10530000CDD0511E7980E868F96805F079FF4FF635
:10531000FE76A5E73A78D007D3D41022E868314664
:1053200005F02EFF1028B4D197F846300B2B03D090
:1053300097F852000328ACD197F847104E29C0D1F6
:1053400097F84820452ABCD197F84930542BB8D15A
:1053500097F84A005328B4D197F84B104329B0D19D
:1053600097F84C20412AACD197F84D30502BA8D15A
:1053700097F84E004528A4D197F84F103229A0D1B4
:1053800097F850202E2A9CD197F85130302B98D185
:1053900097F85300012894D13B78B7F8542043F094
:1053A00001017A803970002A8BD143F003003870F4
:1053B0000DF1070896E70622E868314605F0E0FEA1
:1053C00006287FF466AF97F8461004297FF461AF92
:1053D00097F84B0000287FF45CAF97F8473003F054
:1053E0001C02102A3FF63AAF01A151F822F000BF8B
:1053F0009F5400085D5200085D5200085D5200088D
:105400009F5400085D5200085D5200085D5200087C
:10541000C35400085D5200085D5200085D52000848
:10542000935400085D5200085D5200085D52000868
:105430009354000897F84E30B7F84640B7F84860E4
:10544000B7F84A00B7F84C20BC831906FE833884AD
:105450007A844FD403F04002D3B22BB197F8266080
:1054600046F0080187F82610E86805F0B9FE3B8D84
:10547000F96AFA68386303EB430680190026914203
:105480007863BE633FF4ECAE6B8843F00201698041
:10549000E6E697F8261041F0040087F82600DA07C0
:1054A0001AD4688803F00202D1B289B140F0040333
:1054B0006B80B7F8482097F84A10BA8487F827100D
:1054C000BBE697F8262042F0020187F82610E6E7AF
:1054D00020F004006880ECE797F8263043F00100E4
:1054E00087F826006A8842F0010188B2688097F840
:1054F0004730D7E703F00706022101FA06F03885A6
:10550000A8E700BFAFF30080AFF30080AFF30080E7
:1055100043692DE9F04F9C690546228AA0898242A1
:1055200083B000F0BF80002741F2020640F6FF780A
:105530002189002933D12379E1788B4280F0908151
:105540002078B94612E0237822796769E178581EFD
:10555000C0B220709DF807C002F10803DBB20CFA5C
:1055600002F23A4399426261237127D9214601220E
:1055700030B9E86805F004FE012809D127783FB169
:105580000122E8680DF1070105F0FAFD0128DAD0E3
:105590004F46A3892382384603B0BDE8F08F013916
:1055A00088B2221802F540533833E1191A79208164
:1055B00001370A77BFB21F2FBAD9ECE74F4645F63D
:1055C0001010C0F6010022FA01FC30F81190E089B9
:1055D000C4F814C05B1AB0F5805F237102EA0909B0
:1055E00062D9B4F80CC0CC4500F0CE806189494541
:1055F0007CD0894565D304EB49039A8FB24200F011
:10560000E48022894B4642454CD8994280F0D280B2
:10561000434547D8D00713D4E01800F5005C04EBED
:1056200043030CF1380CA0189B8F9CF804C000F5C4
:1056300040500132994280F83CC092B22FD3B8E07A
:10564000E01800F5005B04EB4303A01800F54050A0
:105650009BF83CB09B8F80F83CB0013292B2E018CE
:1056600004EB020A00F500500AF5405C3830B2F550
:10567000805F0CF1380C02F1010A04EB430B10D0EF
:10568000994280F0968043450BD8BBF83C300279B4
:1056900099428CF804201FFA8AF280F08A804345F0
:1056A000CED92281002776E7431CE2889BB2934241
:1056B000E38196D90B2994D852000131E280E17040
:1056C0008FE7E319013783F81C90BFB2228AB242F8
:1056D00009D0E38903F11A0004EB4000A3F1020CA6
:1056E0008388B3421CD0A4F8109064E70023991C6F
:1056F000E01862180433B3F5005F86879687F6D109
:10570000A1784A1CD3B2012141F202000CF1010C34
:1057100001FA03F12082A4F80EC0E370E1804AE7A9
:10572000CC450CBF13464B468B42828024D943455F
:1057300000F298804FF4805016E092B2501E80B272
:10574000013880B2C2B1434500F28C80BAF83C30D7
:105750008B4204EB43020FD9434500F28380938FC1
:105760008B4209D943457DD804EB4303421E9B8FEE
:105770008B4204EB430AE0D8D9B204EB0C0000F5ED
:10578000005282F83C10AEE7EE68304605F028FD86
:1057900022788118304605F033FD0122E868214661
:1057A00005F0EEFC01287FF4F4AE20780028EBD160
:1057B000EFE6228143453FF675AFA01800F5405053
:1057C000013280F83C30228180E7E3899A1E9145BE
:1057D0007FF468AFB4F808B0C3453FF663AF238ADF
:1057E000994228BFD8B228D243453DD81A464FF433
:1057F000805C18E080B200F1FF3C1FFA8CFC0CF1D9
:10580000FF3C1FFA8CFCB8B142452DD8BAF83C20B9
:10581000914204EB42000FD2424525D8828F91423B
:105820000AD2424520D804EB42020CF1FF30928F9D
:10583000914204EB420ADDD3D0B204EB0B0A04EB35
:10584000090C0AF5405A0CF5005C0BF1010292B20A
:105850008AF83C008CF83C000AF1380A2281D2E632
:105860006269ACE6022188E70220E6E7AFF3008038
:105870002DE9F0414669318D01F500521E3251008B
:105880000746FFF795FC044610B300250570338DDD
:1058900013BBB16881B13079411E6170B268A261F9
:1058A000716BF86805F0ACFCA11C0122F86805F0EA
:1058B00067FC01283DD0318D01F500521E3238467B
:1058C00021465200FFF77CFC48F20200BDE8F0815F
:1058D00048F20400BDE8F081013B00F580406370B0
:1058E0003C30A061316BF86805F08AFC318D0029ED
:1058F000D6D004F11C0813E0617F94F81CE0A07F6F
:10590000A26901F0FC01C9000EF0F80C41EA0C217B
:1059100041EAD00022F81500328D9DB2AA42BFD9CB
:105920000322F868414605F02BFC6B1C0328E3D0EA
:10593000C1E7A3780B2BBED800FA03F55F1CAAB20F
:10594000FDB2002341F2020102F1010E971C00FAA0
:1059500005F06281A4F80CE0E7812182E570E08027
:10596000237163612381981CE51822180433B3F571
:10597000005FA9879187F6D1B4610020BDE8F0816E
:1059800010B54469A16941B1228D02F500531E335F
:105990005A00FFF715FC0020A06110BDAFF3008096
:1059A000F8B547690646EFB1396969B18B898D88C9
:1059B000CA888C6A5B002C33304615FB0232FFF735
:1059C000FFFB2146002CF1D1B96821B1BA883046DD
:1059D0005200FFF7F5FB304671698822FFF7F0FBB4
:1059E00000207061F8BD00BFAFF30080AFF300800E
:1059F000F0B583B0062204466946C06805F0C0FBD6
:105A0000062803D048F2010003B0F0BD9DF8003035
:105A1000472BF7D19DF801004928F3D19DF80210DA
:105A20004629EFD19DF80320382AEBD19DF80430A8
:105A3000372B01D0392BE5D19DF805006128E1D144
:105A40000026668020468821FFF7B2FB054660618C
:105A5000A8B12E7085F8266000F146078680866022
:105A6000066146610722E068394605F089FB072890
:105A700008D02046FFF794FF48F20200C4E748F23E
:105A80000400C1E7B5F84620E280B5F8483023812C
:105A900095F84A00020617D495F84B206A70E06822
:105AA00005F09EFBE8602046FFF792FB48F20303F7
:105AB000984205463AD0591C884231D00028D8D1A6
:105AC0000220208028469FE700F00701022202FA08
:105AD00001F399B2AB8020464900FFF769FBA8604B
