:020000040800F2
:1000000000000220F54A00083D4B00083D4B000867
:100010003D4B00083D4B00083D4B00080000000030
:100020000000000000000000000000003D4B000840
:100030003D4B0008000000003D4B00083D4B000810
:100040003D4B00083D4B00083D4B00083D4B000870
:100050003D4B00083D4B00083D4B00083D4B000860
:100060003D4B00083D4B00083D4B00083D4B000850
:100070003D4B00083D4B00083D4B00083D4B000840
:100080003D4B00083D4B00083D4B00083D4B000830
:100090003D4B00083D4B00083D4B00083D4B000820
:1000A0003D4B00083D4B00083D4B00083D4B000810
:1000B0003D4B00083D4B00083D4B00083D4B000800
:1000C0003D4B00083D4B00083D4B00083D4B0008F0
:1000D0003D4B00083D4B00083D4B00083D4B0008E0
:1000E0003D4B00083D4B00083D4B00083D4B0008D0
:1000F0003D4B00083D4B00083D4B00083D4B0008C0
:100100003D4B00083D4B00083D4B00083D4B0008AF
:100110003D4B00083D4B00083D4B00083D4B00089F
:100120003D4B00083D4B00083D4B00083D4B00088F
:100130003D4B00083D4B00083D4B00083D4B00087F
:100140003D4B00083D4B00083D4B00083D4B00086F
:100150003D4B00083D4B00083D4B00083D4B00085F
:100160003D4B00083D4B00083D4B00083D4B00084F
:100170003D4B00083D4B00083D4B00083D4B00083F
:080180003D4B00083D4B000857
:1001880010B5054C237833B9044B13B10448AFF3C9
:1001980000800123237010BD4804002000000000E7
:1001A8003C4F0008084B10B51BB108480849AFF38D
:1001B80000800848036803B910BD074B002BFBD02B
:1001C800BDE81040184700BF000000003C4F000881
:1001D8004C0400204404002000000000154B002BB4
:1001E80008BF134B9D46A3F5803A00218B460F4666
:1001F8001348144A121A04F0D7FC0F4B002B00D0F6
:1002080098470E4B002B00D098470020002104008F
:100218000D000D48002802D00C4804F087FD04F0BA
:100228009BFC2000290000F013F804F085FC00BFB7
:1002380000000800000000000000000000000000AE
:1002480048040020080E0020354D0008414D0008E4
:1002580090B583B000AF00F077FC334B01221A70E1
:10026800314B0D225A70304BA6229A702F4C3B46C8
:1002780018462D4900F0C2FC22463B4693E803008D
:1002880082E80300294B1B78002B00D0FEE7264BA1
:1002980005221A70254C3B461846234900F0B8FD44
:1002A80022463B4693E8030082E803001F4B1B7875
:1002B800002B00D0FEE71C4B00221A701B4C3B465B
:1002C8001846194900F078FD22463B4693E803009A
:1002D80082E80300154B1B78002B00D0FEE714487A
:1002E80014490022002303F03FFF0346002B00D0EF
:1002F800FEE700BF03F004FF0346012BFAD10A4BC7
:1003080002221A70094C3B461846074900F054FD72
:1003180022463B4693E8030082E80300034B1B7820
:10032800002B00D0FEE7C6E7CC0D0020C40D00204E
:10033800DC0D00204103000890B589B000AF78615A
:10034800FA60BB600B46FB745E4B1B68002B52D1F6
:100358005D4B00221A605D4B00221A705C4C3B46D4
:1003680018465A4900F0F6FC22463B4693E803003B
:1003780082E80300564B1B78002B00D0FEE7544B55
:100388005B685A1C52494A601B781A464D4B1A60E2
:100398004C4B1B681B024B4A13604D4B5B685A1C45
:1003A8004B494A601B781A46464B1B681343454A1B
:1003B8001360444B1B681B02424A1360444B5B6842
:1003C8005A1C43494A601B781A463E4B1B68134324
:1003D8003C4A13603B4B1B681B023A4A13603C4B78
:1003E8005B685A1C3A494A601B781A46354B1B68A9
:1003F8001343344A1360354B00221A70334B0A22D8
:100408005A70FB7C23F007022E4B1B68934228BFCF
:100418001346FB832C4B1B681B0EDAB22B4B9A70CE
:10042800294B1B681B0CDAB2284BDA70264B1B6869
:100438001B0ADAB2254B1A71234B1B68DAB2234B1D
:100448005A71FB8B1B16DAB2204B9A711F4B002294
:10045800DA71FB8B1B0A9BB2DAB21C4B1A72FB8B4C
:10046800DAB21A4B5A72194B00229A72174B0122B0
:10047800DA723B461846154900F040FC144B1B78CD
:10048800002B00D0FEE7FB8B7869194600F0ECFCE6
:100498000020052100F0E8FC0A4B1A68FB8BD31AF0
:1004A800084A1360FA8B084B1B681344064A13600A
:1004B800FB8BDAB2FB681A70002318462437BD4656
:1004C80090BD00BF6404002068040020CC0D00200B
:1004D800C40D002080B500AF114A114B1B6843F0D2
:1004E800010313600E4B00229A600D4A0C4B1B68E7
:1004F80023F0847323F480331360094B094A5A604C
:10050800074A074B1B6823F480231360044B00221F
:10051800DA6000F087F8044B4FF000629A6080BD03
:10052800003802401030002400ED00E080B487B0AD
:1005380000AF00233B6100237B610223FB600023A3
:10054800BB6002237B60324B9B6803F00C033B616A
:100558003B69042B07D0082B09D0002B3FD12D4B2A
:100568002D4A1A603FE02B4B2C4A1A603BE0284B7F
:100578005B6803F480039B0DBB60254B5B6803F04D
:100588003F037B60BB68002B0DD0244A7B68B2FB1D
:10059800F3F21F4B596847F6C0730B409B0903FBE6
:1005A80002F37B610CE01C4A7B68B2FBF3F2184B48
:1005B800596847F6C0730B409B0903FB02F37B6144
:1005C800134B5B6803F440331B0C01335B00FB6087
:1005D8007A69FB68B2FBF3F30E4A136003E00D4B34
:1005E8000D4A1A6000BF0A4B9B6803F0F0031B0911
:1005F8000B4AD35CDBB23B61064B1A683B6922FAB3
:1006080003F3044A13601C37BD465DF8047B70474A
:1006180000380240040000200024F40000127A0090
:100628000800002080B483B000AF00237B60002363
:100638003B60354A344B1B6843F480331360324BBC
:100648001B6803F400333B607B6801337B603B68C5
:10065800002B03D17B68B3F5A06FF0D12A4B1B6840
:1006680003F40033002B02D001233B6001E0002398
:100678003B603B68012B42D1234A234B1B6C43F060
:1006880080531364214A214B1B6843F48043136051
:100698001D4A1D4B9B6893601B4A1B4B9B6843F488
:1006A80000439360184A184B9B6843F4A053936027
:1006B800154B174A5A60144A134B1B6843F0807352
:1006C800136000BF104B1B6803F00073002BF9D0B8
:1006D800104B40F205621A600B4A0B4B9B6823F0E3
:1006E80003039360084A084B9B6843F00203936036
:1006F80000BF054B9B6803F00C03082BF9D10C379E
:10070800BD465DF8047B7047003802400070004029
:1007180008544007003C02406C4F000800000020CD
:100728004404002048040020080E002000000000B7
:1007380080B588B000AFF860B96011461A460B461C
:10074800FB711346BB71FB68A54A934206D1A54AC3
:10075800A44B1B6B43F0010313632AE0FB68A24A16
:10076800934206D19F4A9F4B1B6B43F002031363CE
:100778001FE0FB689D4A934206D19A4A994B1B6B2E
:1007880043F00403136314E0FB68994A934206D1CB
:10079800944A944B1B6B43F00803136309E0FB680E
:1007A800944A934205D18F4A8E4B1B6B43F010033A
:1007B8001363FB681B68FA79520002219140BA79E9
:1007C8005200022000FA02F20A431A43FB681A6038
:1007D800FB689B68FA79520002219140BA7952006D
:1007E800022000FA02F20A431A43FB689A60FB6887
:1007F800DB68FA79520001219140BA795200012050
:1008080000FA02F20A431A43FB68DA60BB687A4AC4
:10081800934207D0BB68794A934203D0BB68784AB1
:10082800934234D1FB79DB08DBB21846FB79DB084D
:10083800DBB21A46FB68083253F82230FA7902F024
:1008480007029200072101FA02F243EA0201FB685B
:1008580000F1080243F82210BB79DB08DBB2184626
:10086800BB79DB08DBB21A46FB68083253F8223042
:10087800BA7902F007029200072101FA02F243EA6C
:100888000201FB6800F1080243F822103FE0BB6850
:100898005C4A934207D0BB685B4A934203D0BB686B
:1008A8005A4A934233D1FB79DB08DBB21846FB790D
:1008B800DB08DBB21A46FB68083253F82230FA79B3
:1008C80002F007029200082101FA02F243EA02014B
:1008D800FB6800F1080243F82210BB79DB08DBB2A1
:1008E8001846BB79DB08DBB21A46FB68083253F8B6
:1008F8002230BA7902F007029200082101FA02F2C6
:1009080043EA0201FB6800F1080243F82210BB68C1
:10091800394A934206D1334A324B5B6C43F0100399
:10092800536435E0BB68354A934206D12D4A2D4BB6
:100938001B6C43F4003313642AE0BB68304A9342CB
:1009480006D1284A274B1B6C43F4802313641FE00D
:10095800BB682C4A934206D1224A224B1B6C43F4B3
:100968000023136414E0BB68274A934206D11D4A4A
:100978001C4B1B6C43F48013136409E0BB68234AC7
:10098800934205D1174A174B5B6C43F0200353641D
:10099800BB689B899AB21E4B13439AB2BB689A8173
:1009A800BB68154A934203D0BB68184A934231D1B9
:1009B800BB6ADB00184603F0F1FD02460B4606A1B0
:1009C800D1E9000103F08AFF02460B46C7E9062376
:1009D80030E000BFAFF3008000000000F40694414F
:1009E80000000240003802400004024000080240B3
:1009F800000C02400010024000100140004400407A
:100A080000480040004C00400050004000140140E5
:100A18000CA0FFFFBB6ADB00184603F0BFFD0246CF
:100A28000B462BA1D1E9000103F058FF02460B4603
:100A3800C7E90623D7E9060104F038F803469BB254
:100A4800184603F0BBFD02460B46D7E9060103F042
:100A580067FC02460B46104619464FF000021E4B33
:100A680003F012FE02460B461046194604F0CEF972
:100A780002460B461046194604F018F80346FB7563
:100A8800FB7DDB08DBB2184603F098FD02460B46F7
:100A980010461946D7E9062303F044FC02460B46E4
:100AA8001046194604F002F803463B613B699BB2C5
:100AB8001B019AB2FB7D9BB203F007039BB2134361
:100AC8009AB2BB681A812037BD4680BDAFF300805B
:100AD80000000000F40684410000204080B483B088
:100AE80000AF78600B46FB70FB789AB27B689A80FF
:100AF8000C37BD465DF8047B704700BF80B483B0F7
:100B080000AF78607B689B889BB2DBB218460C37D5
:100B1800BD465DF8047B704780B483B000AF786051
:100B28000B467B807B681B889AB27B8813409BB2FC
:100B3800002B01D1002300E0012318460C37BD46E5
:100B48005DF8047B704700BF80B582B002AF4FF4F8
:100B580016430093034804490B220A23FFF7E8FDD4
:100B6800BD4680BD00080240004C004090B585B0ED
:100B780000AF03463960FB711346BB710023FB735A
:100B88000023BB73562000F0A3F91A4B1B781846B4
:100B980000F09EF9FB79184600F09AF9BB791846DF
:100BA80000F096F909E03B685A1C3A601B78184631
:100BB80000F08EF9BB79013BBB71BB79002BF2D1F8
:100BC80010E0FC7B00F072F903461A460A4B1A55EE
:100BD800FB7B042B03D1FB7B074AD35CBB73FB7BFA
:100BE8000133FB73FA7BBB7B05339A42E9DB14378D
:100BF800BD4690BD6C0400207004002080B586B00E
:100C080002AF78603960242039680322FFF7AEFF0D
:100C18002248242100F074F90346012B30D11F48E3
:100C280000F0C4F903463B7200237B720023FB608B
:100C38003B6801331B780D2B0ED13B6802331B78C0
:100C4800A62B09D14FF4E1330093154815490B221F
:100C58000A23FFF76DFD15E03B6801331B781C2B59
:100C680010D13B6802331B781C2B0BD14FF4614326
:100C780000930B480B490B220A23FFF759FD01E0AB
:100C880006233B727B681A4607F1080393E80300C2
:100C980082E8030078681037BD4680BD70040020E4
:100CA80000080240004C004080B584B000AF786076
:100CB800262000210022FFF759FF0F48262100F0C7
:100CC8001FF90346012B09D10B4800F06FF90346C1
:100CD8003B7200237B720023FB6001E006233B721A
:100CE8007B681A4607F1080393E8030082E80300CB
:100CF80078681037BD4680BD7004002080B584B088
:100D080000AF78603960322039680C22FFF72EFF77
:100D18000F48322100F0F4F80346012B09D10C48A2
:100D280000F044F903463B7200237B720023FB600A
:100D380001E006233B727B681A4607F1080393E833
:100D4800030082E8030078681037BD4680BD00BF05
:100D58007004002080B584B000AF7860396034201A
:100D680039680122FFF702FF1248342100F0C8F861
:100D78000346012B0FD10F4800F018F903463B72C8
:100D88000C4800F01FF903467B720A4800F026F968
:100D98000346FB6001E006233B727B681A4607F1B5
:100DA800080393E8030082E8030078681037BD461B
:100DB80080BD00BF7004002080B584B000AF7860AB
:100DC8003960362039680122FFF7D0FE0F483621F6
:100DD80000F096F80346012B09D10C4800F0E6F81C
:100DE80003463B7200237B720023FB6001E006236D
:100DF8003B727B681A4607F1080393E8030082E810
:100E0800030078681037BD4680BD00BF700400201D
:100E180080B584B000AF7860396054203968012209
:100E2800FFF7A4FE0F48542100F06AF80346012B8F
:100E380009D10C4800F0BAF803463B7200237B72D4
:100E48000023FB6001E006233B727B681A4607F12A
:100E5800080393E8030082E8030078681037BD466A
:100E680080BD00BF7004002090B585B000AF7860E9
:100E780039600023FB6011E07B68002B09D0FB6818
:100E88005A1CFA607A68D41800F010F803462370E8
:100E980004E000F00BF8FB680133FB60FA683B687C
:100EA8009A42E9D31437BD4690BD00BF80B500AF64
:100EB80000BF06482021FFF72FFE0346012BF8D17B
:100EC8000248FFF71BFE0346184680BD004C004051
:100ED80080B582B000AF0346FB7100BF0748802190
:100EE800FFF71AFE0346012BF8D1FB790348194690
:100EF800FFF7F4FD0837BD4680BD00BF004C004039
:100F080080B582B000AF78600B46FB70786800F05F
:100F180029F80346762B1ED1786800F02FF803468F
:100F28001A460F4B1B789A4215D1786800F032F8B0
:100F380003461A46FB7893420DD1786800F036F8DC
:100F4800786800F033F80346052B04D8786800F079
:100F580039F8012300E0002318460837BD4680BD54
:100F68006C04002080B483B000AF78607B681B7885
:100F780018460C37BD465DF8047B704780B483B0D3
:100F880000AF78607B685B7818460C37BD465DF823
:100F9800047B704780B483B000AF78607B689B782F
:100FA80018460C37BD465DF8047B704780B483B0A3
:100FB80000AF78607B68DB7818460C37BD465DF873
:100FC800047B704780B483B000AF78607B681B797E
:100FD80018460C37BD465DF8047B704780B483B073
:100FE80000AF78607B68053318460C37BD465DF85E
:100FF800047B704790B583B000AF114B04221A7080
:10100800104B00221A70104B1C680D4B1B781A46A7
:101018000E4BD1180A4B1B785B42DAB20C4B1B689B
:1010280008461146074AA0470346FB71FB79002B87
:1010380002D0084AFB7913700C37BD4690BD00BF3B
:10104800740D0020750D0020B80D0020740C0020D0
:10105800BC0D0020C00D002080B500AF144B1B78DC
:10106800002B13D1FFF7C6FF114B1B78002B0DD1B6
:10107800104B1B78DB43DAB20E4B1A700D4B1B7802
:10108800002B01D0FF2310E0D9230EE0084B1B787A
:10109800013BDAB2064B1A70074B1B785A1CD1B2C7
:1010A800054A11701A46054B9B5C184680BD00BF67
:1010B800750D0020720C0020740D0020740C0020A7
:1010C80080B483B000AF0346FB710B4B1B78013B28
:1010D800DAB2094B1A70084B1B781946074AFB7994
:1010E8005354074B1B780133DAB2054B1A700C378F
:1010F800BD465DF8047B7047740D0020740C002019
:10110800750D002080B584B000AF0346FB71FFF772
:10111800A3FF0346FB73FB79002B10D0FB7BFF2B4F
:101128000DD1FFF799FF0346BB73BB7B002B06D09D
:10113800BB7B1846FFF7C4FFFF20FFF7C1FFFB7B0F
:1011480018461037BD4680BD80B584B000AF034651
:101158000A46FB711346BB71FB797B73414B1B88B5
:10116800FB81FB79082B30D9FB79083BFB713D4BA0
:101178001B881A463C4B1B7802FA03F39AB2394B88
:101188001A80BB791846FFF7BDFF03469AB2354B64
:101198001B8813439AB2334B1A80324B1B881A466A
:1011A800314B1B78C3F1080302FA03F39AB22D4BB3
:1011B8001A80FB8923F0FF039AB22A4B1B881B0A6B
:1011C8009BB29BB213439BB2FB81274B1B78FA79E6
:1011D8009A422BD9234B1B881A46234B1B7802FAB9
:1011E80003F39AB21F4B1A80BB791846FFF78AFFA0
:1011F80003469AB21B4B1B8813439AB2194B1A80A9
:10120800184B1B881946FB79174A12789B1A01FA62
:1012180003F39AB2134B1A80134B1A78FB79D31A3B
:10122800DBB20833DAB2104B1A700FE00E4B1A78A3
:10123800FB79D31ADAB20C4B1A700A4B1B881A4680
:10124800FB7902FA03F39AB2064B1A80FA897B7B80
:10125800C3F1100342FA03F39BB218461037BD4698
:1012680080BD00BF760D0020780D002080B582B0CB
:1012780000AF0346FB71FB7918460021FFF764FFB6
:10128800034618460837BD4680BD00BF80B582B00A
:1012980000AF0346FB71FB7918460121FFF754FFA5
:1012A800034618460837BD4680BD00BF80B582B0EA
:1012B80000AF0023FB71174B1B889BB21BB2002B9E
:1012C80001DA0123FB71144B1B78002B10D101208C
:1012D800FFF718FF03469AB20E4B1B8813439AB2C6
:1012E8000C4B1A800C4B1B780833DAB20A4B1A7075
:1012F800094B1B78013BDAB2074B1A70054B1B8868
:101308005B009AB2034B1A80FB7918460837BD4632
:1013180080BD00BF760D0020780D002080B483B01A
:1013280000AF0346FB71FB790F2B4AD801A252F894
:1013380023F000BF7D1300088113000885130008FF
:10134800891300088D1300089113000895130008ED
:10135800991300089D130008A1130008A71300089B
:10136800AD130008B3130008B9130008BF13000831
:10137800C5130008002325E0012323E0022321E010
:1013880004231FE008231DE010231BE0202319E09D
:10139800402317E0802315E04FF4807312E04FF4E8
:1013A80000730FE04FF480630CE04FF4006309E032
:1013B8004FF4805306E04FF4005303E04FF48043AA
:1013C80000E0002318460C37BD465DF8047B7047E3
:1013D80080B483B000AF0346FB71FB790F2B52D862
:1013E80001A252F823F000BF311400083514000898
:1013F8003B14000841140008471400084D14000865
:1014080053140008591400085F14000865140008F4
:101418006B14000871140008771400087D14000884
:10142800831400088914000800232DE04FF6FF7389
:101438002AE04FF6FD7327E04FF6F97324E04FF6E4
:10144800F17321E04FF6E1731EE04FF6C1731BE024
:101458004FF6817318E04FF6017315E04FF60163FC
:1014680012E04FF601430FE04FF601030CE04FF294
:10147800010309E04EF2010306E04CF2010303E028
:1014880048F2010300E000231BB218460C37BD46A2
:101498005DF8047B704700BF80B582B000AF03469B
:1014A8000A46FB8013467B717B791846FFF736FFA7
:1014B80003461A46FB8893420AD27B791846FFF7FF
:1014C80087FF03469AB2FB8813449BB29BB200E0A5
:1014D800FB889BB21BB218460837BD4680BD00BFCB
:1014E80080B584B000AF786039600023FB73FFF7E4
:1014F800DDFE0346BB81FB7B102B01D1002334E0CA
:10150800FA7B7B68103233F812307B81BA897B8989
:101518009A421CD87B894FF6FF72934217D000BFBE
:10152800FB7B7A68134493F840307B72BB89DAB24C
:10153800F97B7B6833F81130DBB2D31ADAB27B7AE5
:1015480013447B727B7A3A6813441B780DE0FB7B6B
:101558000133FB73BB895B00BB81FFF7A7FE034622
:101568009AB2BB891343BB81C5E718461037BD46FD
:1015780080BD00BF80B485B000AF786039600023BB
:10158800FB730023BB730023BB81FB7B7A68134486
:101598001B78FB72FB7A002B12D1FA7B3B68002187
:1015A80023F81210FA7B3B6810324FF6FF7123F8CC
:1015B8001210FB7B3A681344002283F840201FE096
:1015C800FA7B3B68B98923F81210FA7BFB7A99B247
:1015D800BB890B449BB2013B99B23B68103223F89C
:1015E8001210FB7B3A681344BA7B83F84020BA7B1D
:1015F800FB7A1344BB73FB7A9AB2BB891344BB8151
:10160800BB895B00BB81FB7B0133FB73FB7B0F2B2F
:1016180000D900E0B9E71437BD465DF8047B704790
:1016280080B483B000AF0346FB71FB79032B13D85A
:1016380001A252F823F000BF511600085516000801
:10164800591600085D160008074B06E0074B04E032
:10165800074B02E0074B00E0002318460C37BD4655
:101668005DF8047B704700BF100900207009002056
:10167800D0090020200B002080B483B000AF0346BF
:10168800FB71FB79032B13D801A252F823F000BF9A
:10169800A9160008AD160008B1160008B51600080E
:1016A800074B06E0074B04E0074B02E0074B00E05E
:1016B800002318460C37BD465DF8047B704700BF11
:1016C80060090020C0090020200A0020700B0020BB
:1016D80080B483B000AF0346FB71FB79012B01D8BE
:1016E8000C2300E0FF2318460C37BD465DF8047B49
:1016F800704700BF90B58BB000AF1020FFF7B6FD64
:101708000346FB84FB8C012B01D804239DE0FB8C52
:10171800023BFB8494E00820FFF7A8FD034687F806
:10172800213097F8213003F00F03012B05DC97F8DF
:10173800213003F0F003102B01DD032385E097F837
:101748002130DB08DBB203F00203DAB297F821306C
:1017580003F00103DBB2134487F8203097F82030F8
:101768001846FFF75DFFF86197F820301846FFF735
:1017780083FFB86197F82030012202FA03F3DAB246
:10178800344B1B78DBB21343DBB2DAB2314B1A703D
:1017980000237B84002387F8253016E00820FFF714
:1017A80065FD0346FB7597F8253007F128021344B9
:1017B800FA7D03F8242CFB7D9AB27B8C13447B843E
:1017C80097F82530013387F8253097F825300F2B07
:1017D800E4D997F820301846FFF77AFF03461A46EF
:1017E8007B8C934201D902232FE0002387F8253010
:1017F8000EE097F82530BA69D4180820FFF736FDAF
:101808000346DBB2237097F82530013387F825307B
:1018180097F825309BB27A8C9A42EAD87B8C1133A0
:10182800BB82FA8CBB8A9A4201D204230DE0FA8C5F
:10183800BB8AD31AFB843B1D1846F969FFF79AFE49
:10184800FB8C002B7FF467AF002318462C37BD466E
:1018580090BD00BF700C002090B585B000AF10207F
:10186800FFF704FD0346FB81FB89012B01D8052303
:1018780069E0FB89023BFB8161E00820FFF7F6FC89
:101888000346FB71FB791B09BB71FB7903F00F035E
:10189800FB71FB79012B01D9062354E0FB79002B5E
:1018A80001D0022200E00122294B1B78DBB213434E
:1018B800DBB2DAB2264B1A7000237B7321E00820D2
:1018C800FFF7D4FC03463B81BB79002B08D03B894A
:1018D8001B029CB20820FFF7C9FC034623443B8146
:1018E800FB79002B05D07B7B39891A4A22F8131023
:1018F80004E07B7B3989184A22F813107B7B01337B
:101908007B737B7B3F2BDAD9FB79002B01D0114B02
:1019180000E0114B184600F057FD41237B81BB794D
:10192800002B02D07B8940337B81FA897B899A42DC
:1019380001D2152307E0FA897B89D31AFB81FB8939
:10194800002B9AD1002318461437BD4690BD00BF1E
:10195800710C0020880800200808002090B583B08A
:1019680000AF1020FFF782FC0346BB800820FFF77A
:101978007DFC0346082B01D0072372E01020FFF7F7
:1019880075FC03461A46394B1A80384B1B88002BC6
:1019980004D0364B1B88B3F5804F01D9082360E08B
:1019A8001020FFF763FC03461A46314B1A80304B70
:1019B8001B88002B04D02E4B1B88B3F5804F01D910
:1019C80009234EE00820FFF751FC0346DAB2294B01
:1019D8001A70284B1B78032B01D90A2341E0BA88D7
:1019E800244B1B781946234B1B780B442149097853
:1019F8000B4408339A4201D00B2332E00023FB71D9
:101A080029E0FC790820FFF731FC0346DAB21A4BCB
:101A18001A55FC790420FFF729FC0346DAB2174B64
:101A28001A55FC790420FFF721FC0346DAB2144B5F
:101A38001A55FC790820FFF719FC0346DAB2114B56
:101A48001A55FB790F4AD35C012B01D9242308E0EE
:101A5800FB790133FB71074B1B78FA799A42D0D393
:101A6800002318460C37BD4690BD00BF7C0D0020F2
:101A78007A0D00207E0D0020800D0020840D0020AE
:101A8800880D00208C0D002080B582B000AF10209A
:101A9800FFF7ECFB0346FB80FB88012B01D80C23E6
:101AA8000DE0FB88023BFB8005E00820FFF7DEFB2A
:101AB800FB88013BFB80FB88002BF6D100231846EE
:101AC8000837BD4680BD00BF80B500AF1020FFF7C6
:101AD800CDFB0346042B01D00D2307E01020FFF7B0
:101AE800C5FB03461A46024B1A800023184680BDE0
:101AF800900D002080B584B000AF1020FFF7B6FB32
:101B08000346BB810820FFF7B1FB0346DAB2404B1E
:101B18001A70BB89033BBB81BA893D4B1B781946B8
:101B28003B4B1B780B4403339A4207D1384B1B7845
:101B3800002B03D0364B1B78032B01D90E2363E00F
:101B48000023FB7339E00820FFF790FB0346BB72C4
:101B58000820FFF78BFB03467B72BB89023BBB81E6
:101B68000023FB7209E0FB7A2A4AD35CBA7A9A42CC
:101B780000D107E0FB7A0133FB72274B1B78FA7A16
:101B88009A42F0D3244B1B78FA7A9A4201D30F2356
:101B98003AE0FB7B2149FA7ACA54FB7A7A7A12092D
:101BA800D1B21F4AD154FB7A7A7A02F00F02D1B22D
:101BB8001C4AD154FB7B0133FB73154B1B78FA7B12
:101BC8009A42C0D30820FFF751FB03463B72082016
:101BD800FFF74CFB0346FB710420FFF747FB034666
:101BE800BB710420FFF742FB03467B71BB89033BB3
:101BF800BB8105E00820FFF739FBBB89013BBB81AE
:101C0800BB89002BF6D1002318461037BD4680BD8E
:101C1800960D0020800D00207E0D0020980D0020DC
:101C28009C0D0020A00D002080B582B000AF0023DD
:101C3800FB71FB790133FB710820FFF717FB0346A3
:101C4800BB71BB79FF2BF4D10820FFF70FFB0346CC
:101C5800BB71BB79FF2BF7D0BB79002BE9D0BB79DF
:101C680018460837BD4680BD80B584B000AF78609F
:101C7800FFF7DAFF0346FB73FB7BCB2B0FDCC92B8B
:101C88001BDAC42B1ED0C42B06DC012B25D0012B5C
:101C980025DBC02B23DB10E0C72B0EDD1DE0D72B87
:101CA80004DCD02B19DACC2B0FD006E0DB2B0ED0BE
:101CB800DB2B02DBDD2B0DD011E07B68FA7B1A7081
:101CC800002310E0FFF716FD0CE011230BE0FFF7EF
:101CD800C3FD07E0FFF7F8FE04E0122303E0FFF777
:101CE800D3FE00BFC4E718461037BD4680BD00BF0D
:101CF80080B582B000AF0820FFF7B8FA03463B7101
:101D08000820FFF7B3FA03467B713B79FF2B04D118
:101D18007B79D82B01D100232AE04FF48053FB8034
:101D2800FB88013BFB80FB88002B01D113231FE0BC
:101D38007B793B710820FFF799FA03467B713B7961
:101D4800FF2B11D17B79D82B09D100BF0A4B1B88F7
:101D58001B0A9BB27B717B79FF2B08D005E07B794E
:101D6800D92B01D1132303E0DAE7132300E0002382
:101D780018460837BD4680BD760D002080B582B074
:101D880000AFFFF7B5FF0346FB71FB79002B01D0CD
:101D9800FB7923E0BB1D1846FFF766FF0346FB717E
:101DA800FB79002B01D0FB7918E0BB79C22B04D05A
:101DB800C92B10D0C02B02D00FE025230EE0FFF76F
:101DC800CDFD0346FB71FB79002B01D0FB7905E0C3
:101DD80000BF002302E0112300E01423184608374F
:101DE800BD4680BD80B584B000AF78607B680022B6
:101DF8001A7007F10E031846FFF736FF0346FB7308
:101E0800FB7B002B01D0FB7B0FE0BB7BD92B04D1E4
:101E18007B6801221A70002307E0BB7BDA2B01D014
:101E2800122302E0FFF766FE034618461037BD4648
:101E380080BD00BF80B500AF164B00221A80164B3C
:101E480000221A80154B00221A70154B00221A80A6
:101E5800144B00221A70144B00221A70134B0022E4
:101E68001A70134B00221A70124B00221A70124B70
:101E780000221A70114B00221A80114B08221A7086
:101E88000820FFF7F3F90820FFF7F0F900231846B8
:101E980080BD00BF7A0D00207C0D00207E0D002043
:101EA800900D0020960D0020700C0020710C002071
:101EB800720C0020740D0020750D0020760D002096
:101EC800780D002080B500AF0D4B1B78002B05D096
:101ED8000C4B1B88DBB21846FFF7F2F8094B1B883E
:101EE8001B0A9BB2DBB21846FFF7EAF8044B08223C
:101EF8001A700820FFF7CAF90820FFF7C7F980BD54
:101F0800780D0020760D002080B582B000AF002348
:101F18007B714FF4C063FB8008E0FFF79DF8034630
:101F2800FF2B00D105E0FB88013BFB80FB88002BE1
:101F3800F3D1FB88002B01D11D233BE00AE0FFF71A
:101F48008BF803467B717B79FF2B00D005E0FB887B
:101F5800013BFB80FB88002BF1D1FB88002B01D1D2
:101F68001D2327E07A79154B1B88D0339A4201D07C
:101F78001D231FE0124B00221A80114B00225A80A9
:101F88000F4B00229A800F4B1A880F4B1A800B4B6D
:101F98001B8801339BB203F007039AB2074B1A80E0
:101FA8000A4B08221A700820FFF770F90820FFF77B
:101FB8006DF9002318460837BD4680BD920D0020F4
:101FC80008090020900D0020940D0020780D0020B5
:101FD80080B582B000AF124B08221A700820FFF7B4
:101FE80045F90820FFF742F9BB1D1846FFF73CFEEC
:101FF8000346FB71FB79002B01D0FB790CE0094B00
:102008001B78002B02D0074B1B7805E0BB79D92B36
:1020180001D0122300E0002318460837BD4680BDD2
:10202800780D0020C00D002080B483B000AF0023DD
:10203800FB7127E0FB79194AD35C1A46184B9B5C65
:10204800BB71FB79154AD35C1A46164B9B5C02336D
:102058007B71154B1B781A46BB7942FA03F303F0E0
:102068000103002B09D0104B1B781A467B7942FAE2
:1020780003F303F00103002B01D1182308E0FB79D7
:102088000133FB71094B1B78FA799A42D2D30023AA
:1020980018460C37BD465DF8047B7047980D002044
:1020A8009C0D0020A00D0020700C0020960D002033
:1020B80080B483B000AF0023FB7117E0FB79114AAD
:1020C800D35C1A46104B9B5C002B01D0022300E026
:1020D8000123BB710D4B1A78BB791340DBB2002B7F
:1020E80001D1172308E0FB790133FB71084B1B78FA
:1020F800FA799A42E2D3002318460C37BD465DF8B8
:10210800047B7047980D00208C0D0020710C002076
:10211800960D002080B582B000AFBB1D1846FFF7B2
:1021280061FE0346FB71FB79002B01D0FB792DE0A2
:10213800BB79002B01D0122328E0FFF775FF034677
:10214800FB71FB79002B01D0FB791FE0FFF7B0FF93
:102158000346FB71FB79002B01D0FB7916E00D4B90
:1021680000221A800B4B00225A800A4B00229A80C8
:10217800094B1B88002B06D0074B1A88074B1A807F
:10218800074B00221A80FFF79DFE002318460837E8
:10219800BD4680BD08090020900D0020940D002048
:1021A800920D002080B400AF7A4B1B78012B19D117
:1021B800794B1B78012B03D1784B1B78012B01D06D
:1021C8001B23E2E0764B00221A70764B01221A702C
:1021D800754B00221A70754B08221A70744B08222E
:1021E8001A70A2E06B4B1B78032B40F09C806A4B63
:1021F8005B78012B0BD1694B5B78012B07D1664BC0
:102208009B78012B03D1654B9B78012B01D01B23B5
:10221800BBE0614B1B78012B19D1604B1B78012B5C
:1022280015D15F4B01221A705E4B03221A705E4B68
:1022380000221A705C4B01225A705B4B02229A7082
:102248005A4B08221A705A4B08221A706AE0524BED
:102258001B78012B1CD1514B1B78022B18D1504BEA
:1022680003221A704F4B04221A704F4B00221A7027
:102278004D4B00225A704C4B01229A704A4B022255
:10228800DA704A4B08221A70494B10221A7049E03A
:10229800414B1B78022B1CD1404B1B78012B18D1CA
:1022A8003F4B02221A703F4B04221A703E4B002209
:1022B8001A703D4B00225A703B4B01229A703A4BE0
:1022C8000222DA70394B10221A70394B08221A7020
:1022D80028E0314B1B78022B22D1304B1B78022B84
:1022E8001ED12F4B04221A702E4B06221A702E4B29
:1022F80000221A702C4B00225A702B4B00229A7025
:10230800294B0022DA70284B01221A71264B02222F
:102318005A71264B10221A70254B10221A7001E0B0
:102328001B2332E001E01A232FE0224B1B881A46B8
:102338001E4B1B78013B1A441C4B1B78082B01D100
:10234800032300E0042342FA03F39AB21A4B1A80DB
:102358001A4B1B881A46164B1B78013B1A44144B20
:102368001B78082B01D1032300E0042342FA03F36E
:102378009AB2134B1A80104B1A88114B1B8812FB08
:1023880003F39AB20F4B1A8000231846BD465DF836
:10239800047B70477E0D0020840D0020880D0020EE
:1023A800A30D0020A40D0020B00D0020A50D0020D5
:1023B800A60D00207A0D0020A80D00207C0D00201D
:1023C800AA0D0020AC0D002080B485B000AF786065
:1023D8000023FB731AE0FB7B5B007A6813441B88BD
:1023E8001BB2BB60FB7B0D4AD35C1A46BB6802FB81
:1023F80003F3BB60FB7B5B007A681344BA68043262
:10240800D21092B21A80FB7B0133FB73FB7B3F2B0C
:10241800E1D91437BD465DF8047B7047F44E0008D7
:1024280080B485B000AF0346FB80B7F906304FF49F
:10243800B57202FB03F3FB60FB688033FB60FB684B
:102448001B129BB21BB218461437BD465DF8047BBD
:10245800704700BF80B485B000AF0346FB80B7F972
:10246800063040F29D2202FB03F3FB60FB688033D9
:10247800FB60FB681B129BB21BB218461437BD46A3
:102488005DF8047B704700BF80B485B000AF034699
:10249800FB80B7F9063040F2151202FB03F3FB602C
:1024A800FB688033FB60FB681B129BB21BB21846AB
:1024B8001437BD465DF8047B704700BF80B485B013
:1024C80000AF0346FB80B7F90630C42202FB03F3D2
:1024D800FB60FB688033FB60FB681B129BB21BB27E
:1024E80018461437BD465DF8047B704780B483B046
:1024F80000AF0346FB80FB88FF2B0BD9B7F90630EA
:10250800002B01DA002307E0B7F90630FF2B01DDC5
:10251800FF2301E0FB88DBB218460C37BD465DF8A7
:10252800047B704790B593B000AF244B3B64002305
:1025380087F847302AE13B6C02331A883B6C043336
:102548001B8813439AB23B6C06331B8813439AB219
:102558003B6C08331B8813439AB23B6C0A331B88C5
:1025680013439AB23B6C0C331B8813439AB23B6CEF
:102578000E331B8813439BB2002B21D13B6C1B8865
:10258800FB873B6C0233FA8F1A803B6C0433FA8F5B
:102598001A803B6C0633FA8F1A803B6C0833FA8F2B
:1025A8001A803B6C0A33FA8F1A803B6C0C33FA8F13
:1025B8001A803B6C0E33FA8F1A80DFE08804002003
:1025C8003B6C5B89BB873B6CDB887B87BA8F7B8FD7
:1025D800D31A9BB23B87BA8F7B8F13449BB2FB867F
:1025E8003B6C5B88BB863B6CDB897B86BA8E7B8EBB
:1025F80013449BB23B86BA8E7B8ED31A9BB2FB8563
:102608003A8FFB8DD31A9BB29BB21BB21846FFF7C9
:1026180055FF0346BB85B7F92E301846FFF734FF40
:1026280003469AB2BB8DD31A9BB27B85BC8DB7F992
:1026380038301846FFF70EFF03469BB2E31A9BB2E9
:102648003B853A8EFB8ED31A9BB2FB843A8EFB8E67
:1026580013449BB2BB847A8DBB8CD31A9BB27B8408
:10266800B7F926301846FFF7DBFE03469AB27B8C93
:10267800D31A9BB23B843A8C3B8D13449BB2FB83A9
:102688003B6C1B88BB833B6C1B897B83BA8B7B8B26
:1026980013449BB23B83BA8B7B8BD31A9BB2FB82CE
:1026A8003B6C9B88BB823B6C9B897B82BA8A7B8A0A
:1026B800D31A9BB23B82BA8A7B8A13449BB2FB81B2
:1026C800B7F910301846FFF7ABFE03469AB2FB89FC
:1026D800D31A9BB2BB813A8BFB8913449BB27B8193
:1026E8003A8BFB89D31A9BB23B81FA8ABB89134484
:1026F8009BB2FB80FA8ABB89D31A9BB2BB807A89CA
:10270800BB8C13449BB29AB23B6C1A803B6C02336D
:10271800F9887A8C0A4492B292B21A803B6C0433DC
:10272800B9883A8C0A4492B292B21A803B6C06334A
:102738003989FA8B8A1A92B292B21A803B6C0833A2
:102748003989FA8B0A4492B292B21A803B6C0A33E6
:10275800B9883A8C8A1A92B292B21A803B6C0C33BE
:10276800F9887A8C8A1A92B292B21A803B6C0E332C
:102778007989BA8C8A1A92B292B21A803B6C103359
:102788003B6497F84730013387F8473097F847306C
:10279800072B7FF6D0AE4C37BD4690BD90B593B0B1
:1027A80000AF344B3B64002387F84730B5E13B6CFE
:1027B80010331A883B6C20331B8813439AB23B6C46
:1027C80030331B8813439AB23B6C40331B88134346
:1027D8009AB23B6C50331B8813439AB23B6C6033FC
:1027E8001B8813439AB23B6C70331B8813439BB20C
:1027F800002B41D13B6C1B881BB24033DB099BB2D9
:1028080080339BB29BB21BB21846FFF76FFE03469C
:1028180087F83F3097F83F309AB23B6C1A803B6C90
:10282800103397F83F2092B21A803B6C203397F808
:102838003F2092B21A803B6C303397F83F2092B217
:102848001A803B6C403397F83F2092B21A803B6C59
:10285800503397F83F2092B21A803B6C603397F858
:102868003F2092B21A803B6C703397F83F2092B2A7
:102878001A804AE1880400203B6CB3F85030BB87CB
:102888003B6C1B8E7B87BA8F7B8FD31A9BB23B879F
:10289800BA8F7B8F13449BB2FB863B6C1B8ABB862B
:1028A8003B6CB3F870307B86BA8E7B8E13449BB238
:1028B8003B86BA8E7B8ED31A9BB2FB853A8FFB8DF3
:1028C800D31A9BB29BB21BB21846FFF7F7FD03461B
:1028D800BB85B7F92E301846FFF7D6FD03469AB2E6
:1028E800BB8DD31A9BB27B85BC8DB7F9383018469F
:1028F800FFF7B0FD03469BB2E31A9BB23B853A8EC5
:10290800FB8ED31A9BB2FB843A8EFB8E13449BB288
:10291800BB847A8DBB8CD31A9BB27B84B7F92630E3
:102928001846FFF77DFD03469AB27B8CD31A9BB2FB
:102938003B843A8C3B8D13449BB2FB833B6C1B88D6
:10294800BB833B6CB3F840307B83BA8B7B8B1344DF
:102958009BB23B83BA8B7B8BD31A9BB2FB823B6CBB
:102968001B8CBB823B6CB3F860307B82BA8A7B8A53
:10297800D31A9BB23B82BA8A7B8A13449BB2FB81EF
:10298800B7F910301846FFF74BFD03469AB2FB899A
:10299800D31A9BB2BB813A8BFB8913449BB27B81D0
:1029A8003A8BFB89D31A9BB23B81FA8ABB891344C1
:1029B8009BB2FB80FA8ABB89D31A9BB2BB80B7F95A
:1029C8000A20B7F9243013444033DB099BB2803323
:1029D8009BB29BB21BB21846FFF788FD03469AB21A
:1029E8003B6C1A803B6C03F11004B7F90620B7F969
:1029F800223013444033DB099BB280339BB29BB235
:102A08001BB21846FFF772FD03469BB223803B6C4E
:102A180003F12004B7F90420B7F9203013444033F8
:102A2800DB099BB280339BB29BB21BB21846FFF7FF
:102A38005DFD03469BB223803B6C03F13004B7F97C
:102A48000820B7F91E30D31A4033DB099BB2803314
:102A58009BB29BB21BB21846FFF748FD03469BB2D8
:102A680023803B6C03F14004B7F90820B7F91E3006
:102A780013444033DB099BB280339BB29BB21BB239
:102A88001846FFF733FD03469BB223803B6C03F1E6
:102A98005004B7F90420B7F92030D31A4033DB09C2
:102AA8009BB280339BB29BB21BB21846FFF71EFD48
:102AB80003469BB223803B6C03F16004B7F9062000
:102AC800B7F92230D31A4033DB099BB280339BB26B
:102AD8009BB21BB21846FFF709FD03469BB2238041
:102AE8003B6C03F17004B7F90A20B7F92430D31A04
:102AF8004033DB099BB280339BB29BB21BB21846B2
:102B0800FFF7F4FC03469BB223803B6C02333B6423
:102B180097F84730013387F8473097F84730072B45
:102B28007FF645AE4C37BD4690BD00BF80B483B03C
:102B380000AF03460A46FB711346BB80FB799AB285
:102B4800BB8813449BB2BB80BB88FF2B0BD9B7F95A
:102B58000430002B01DA002307E0B7F90430FF2B1B
:102B680001DDFF2301E0BB88DBB218460C37BD4608
:102B78005DF8047B704700BF80B483B000AF0346A4
:102B88000A46FB711346BB80FB799AB2BB88D31AFD
:102B98009BB2BB80BB88FF2B0BD9B7F90430002B45
:102BA80001DA002307E0B7F90430FF2B01DDFF232A
:102BB80001E0BB88DBB218460C37BD465DF8047BE4
:102BC800704700BF90B589B000AF03460A46FB7155
:102BD8001346BB71FB795B005A4A1344BB61BB794E
:102BE800594A13447B61BB79584A13443B6100231B
:102BF800BB77A0E00023FB778DE0BB699A1CBA6124
:102C08001B88FB73FB7B582202FB03F31B0A9BB256
:102C18002C3B9BB2BB817B691A78B7F90C30104604
:102C28001946FFF7A9FF03461A467B691A707B69A4
:102C38005C1C7B6901331A78B7F90C3010461946C9
:102C4800FFF79AFF034623707B6903F108047B6949
:102C580008331A78B7F90C3010461946FFF78CFF7D
:102C6800034623707B6903F109047B6909331A78E9
:102C7800B7F90C3010461946FFF77EFF034623705C
:102C8800FB7B9AB2FB7BC62101FB03F31B0A9BB2B9
:102C980013449BB2E33B9BB27B813B691A78B7F93B
:102CA8000A3010461946FFF741FF03461A463B69AA
:102CB8001A703B695C1C3B6901331A78B7F90A3012
:102CC80010461946FFF732FF034623703B6903F1AC
:102CD80008043B6908331A78B7F90A3010461946D0
:102CE800FFF724FF034623703B6903F109043B699E
:102CF80009331A78B7F90A3010461946FFF716FF54
:102D0800034623707B6902337B613B6902333B6175
:102D1800FB7F0133FB77FB7F032B7FF66EAFBB692D
:102D28000833BB617B6908337B613B6908333B61CE
:102D3800BB7F0133BB77BB7F032B7FF65BAF2437A9
:102D4800BD4690BD88040020080600200807002022
:102D580090B589B000AF03460A46FB711346BB71B4
:102D6800FB795B003A4A1344BB61BB79394A134487
:102D78007B61BB79384A13443B610023BB7761E030
:102D88000023FB7755E0BB699A1CBA611B88FB736B
:102D9800FB7B582202FB03F31B0A9BB22C3B9BB222
:102DA800BB817B691A78B7F90C3010461946FFF7D2
:102DB800E3FE03461A467B691A707B695C1C7B69D3
:102DC80001331A78B7F90C3010461946FFF7D4FECC
:102DD80003462370FB7B9AB2FB7BC62101FB03F3FE
:102DE8001B0A9BB213449BB2E33B9BB27B813B69BA
:102DF8001A78B7F90A3010461946FFF797FE0346C6
:102E08001A463B691A703B695C1C3B6901331A78A6
:102E1800B7F90A3010461946FFF788FE03462370B3
:102E28007B6902337B613B6902333B61FB7F013382
:102E3800FB77FB7F032BA6D9BB690833BB61BB7F3C
:102E48000133BB77BB7F072B9AD92437BD4690BD8A
:102E580088040020080600200807002090B589B0E3
:102E680000AF03460A46FB711346BB71FB795B0052
:102E78003D4A1344BB61BB793C4A13447B61BB792F
:102E88003B4A13443B610023BB7766E00023FB7792
:102E980057E0BB699A1CBA611B88FB73FB7B5822FD
:102EA80002FB03F31B0A9BB22C3B9BB2BB817B69E1
:102EB8001A78B7F90C3010461946FFF75DFE03463D
:102EC8001A467B691A707B6903F108047B69083329
:102ED8001A78B7F90C3010461946FFF74DFE03462D
:102EE8002370FB7B9AB2FB7BC62101FB03F31B0A11
:102EF8009BB213449BB2E33B9BB27B813B691A783C
:102F0800B7F90A3010461946FFF710FE03461A466D
:102F18003B691A703B6903F108043B6908331A7866
:102F2800B7F90A3010461946FFF700FE034623702A
:102F38007B6901337B613B6901333B61FB7F013373
:102F4800FB77FB7F072BA4D97B6908337B613B693F
:102F580008333B61BB7F0133BB77BB7F032B95D91C
:102F68002437BD4690BD00BF880400200806002015
:102F78000807002090B589B000AF03460A46FB71E8
:102F88001346BB71FB795B005A4A1344BB61BB799A
:102F9800594A13447B61BB79584A13443B61002367
:102FA800BB77A0E00023FB778DE0BB699A1CBA6170
:102FB8001B88FB73FB7B9AB2FB7B672101FB03F346
:102FC8001B0A9BB213449BB2B33B9BB2BB817B6988
:102FD8001A78B7F90C3010461946FFF7A7FD0346D3
:102FE8001A467B691A707B695C1C7B6901331A7805
:102FF800B7F90C3010461946FFF798FD03462370C1
:103008007B6903F108047B6908331A78B7F90C3037
:1030180010461946FFF78AFD034623707B6903F1C2
:1030280009047B6909331A78B7F90C301046194638
:10303800FFF77CFD03462370FB7BB72202FB03F3FB
:103048001B0A9BB25B3B9BB27B813B691A78B7F941
:103058000A3010461946FFF78FFD03461A463B69AA
:103068001A703B695C1C3B6901331A78B7F90A305E
:1030780010461946FFF780FD034623703B6903F1AC
:1030880008043B6908331A78B7F90A30104619461C
:10309800FFF772FD034623703B6903F109043B699E
:1030A80009331A78B7F90A3010461946FFF764FD54
:1030B800034623707B6902337B613B6902333B61C2
:1030C800FB7F0133FB77FB7F032B7FF66EAFBB697A
:1030D8000833BB617B6908337B613B6908333B611B
:1030E800BB7F0133BB77BB7F032B7FF65BAF2437F6
:1030F800BD4690BD88040020080500200806002071
:1031080090B589B000AF03460A46FB711346BB7100
:10311800FB795B003A4A1344BB61BB79394A1344D3
:103128007B61BB79384A13443B610023BB7761E07C
:103138000023FB7755E0BB699A1CBA611B88FB73B7
:10314800FB7B9AB2FB7B672101FB03F31B0A9BB253
:1031580013449BB2B33B9BB2BB817B691A78B7F926
:103168000C3010461946FFF7E1FC03461A467B6906
:103178001A707B695C1C7B6901331A78B7F90C30CB
:1031880010461946FFF7D2FC03462370FB7BB72293
:1031980002FB03F31B0A9BB25B3B9BB27B813B693F
:1031A8001A78B7F90A3010461946FFF7E5FC0346C6
:1031B8001A463B691A703B695C1C3B6901331A78F3
:1031C800B7F90A3010461946FFF7D6FC03462370B4
:1031D8007B6902337B613B6902333B61FB7F0133CF
:1031E800FB77FB7F032BA6D9BB690833BB61BB7F89
:1031F8000133BB77BB7F072B9AD92437BD4690BDD7
:1032080088040020080500200806002090B589B031
:1032180000AF03460A46FB711346BB71FB795B009E
:103228003D4A1344BB61BB793C4A13447B61BB797B
:103238003B4A13443B610023BB7766E00023FB77DE
:1032480057E0BB699A1CBA611B88FB73FB7B9AB277
:10325800FB7B672101FB03F31B0A9BB213449BB260
:10326800B33B9BB2BB817B691A78B7F90C30104627
:103278001946FFF75BFC03461A467B691A707B699F
:1032880003F108047B6908331A78B7F90C30104643
:103298001946FFF74BFC03462370FB7BB72202FB62
:1032A80003F31B0A9BB25B3B9BB27B813B691A7899
:1032B800B7F90A3010461946FFF75EFC03461A466E
:1032C8003B691A703B6903F108043B6908331A78B3
:1032D800B7F90A3010461946FFF74EFC034623702B
:1032E8007B6901337B613B6901333B61FB7F0133C0
:1032F800FB77FB7F072BA4D97B6908337B613B698C
:1033080008333B61BB7F0133BB77BB7F032B95D968
:103318002437BD4690BD00BF880400200805002062
:103328000806002080B489B000AF0346FB71FB7922
:10333800174A1344BB61FB79164A13447B61FB7936
:10334800154A13443B61154BFB604023FB7716E09D
:10335800FB689A1CFA601B88FB72BB695A1CBA612D
:10336800FA7A1A707B695A1C7A61FA7A1A703B6980
:103378005A1C3A61FA7A1A70FB7F013BFB77FB7F94
:10338800002BE5D12437BD465DF8047B704700BFAC
:1033980008050020080600200807002088040020EF
:1033A80090B589B000AF0346FB71FB79244A1344FA
:1033B800BB61FB79234A13447B61234B3B61402368
:1033C800FB7737E03B699A1C3A611B88FB73FB7BF0
:1033D800582202FB03F31B0A9BB22C3B9BB2BB8116
:1033E800BC69631CBB61BB691A78B7F90C3010461D
:1033F8001946FFF7C1FB03462370FB7B9AB2FB7BA0
:10340800C62101FB03F31B0A9BB213449BB2E33BA7
:103418009BB27B817C69631C7B617B691A78B7F9F5
:103428000A3010461946FFF781FB03462370FB7FDD
:10343800013BFB77FB7F002BC4D12437BD4690BDF1
:1034480008060020080700208804002090B589B0ED
:1034580000AF0346FB71FB79244A1344BB61FB7937
:10346800234A13447B61234B3B614023FB7737E0BE
:103478003B699A1C3A611B88FB73FB7B9AB2FB7B06
:10348800672101FB03F31B0A9BB213449BB2B33BB6
:103498009BB2BB81BC69631CBB61BB691A78B7F975
:1034A8000C3010461946FFF741FB03462370FB7B9F
:1034B800B72202FB03F31B0A9BB25B3B9BB27B81E7
:1034C8007C69631C7B617B691A78B7F90A301046FE
:1034D8001946FFF751FB03462370FB7F013BFB773F
:1034E800FB7F002BC4D12437BD4690BD08050020C2
:1034F800080600208804002080B582B000AF03468B
:10350800FB71FFF70FF8FFF749F9674B1B78042B9E
:1035180000F2C78001A252F823F000BF3935000835
:1035280041350008BF3500086B3500081336000820
:103538000020FFF7F7FEB4E0FB79012B08D0022B3F
:103548000AD0002B00D0ACE00020FFF7EBFE07E02C
:103558000020FFF725FF03E00020FFF777FF00BFFB
:103568009FE0FB79032B00F2978001A252F823F029
:10357800893500089135000899350008AB350008F1
:103588000020FFF7CFFE15E08020FFF7CBFE11E00B
:1035980000200021FFF762FC20208021FFF75EFC5D
:1035A80008E000200021FFF731FE20208021FFF7EE
:1035B8002DFE00BF70E0FB79032B6FD801A252F8F3
:1035C80023F000BFDD350008E5350008ED350008BB
:1035D800FF3500080020FFF7A5FE15E04020FFF7A3
:1035E800A1FE11E000200021FFF7B2FB04204021DA
:1035F800FFF7AEFB08E000200021FFF781FD042063
:103608004021FFF77DFD00BF48E0FB79052B47D837
:1036180001A252F823F000BF3936000841360008ED
:103628004936000851360008593600087B3600082C
:103638000020FFF777FE2DE04020FFF773FE29E01A
:103648008020FFF76FFE25E0C020FFF76BFE21E02A
:1036580000200021FFF7B6FA04204021FFF7B2FA54
:1036680020208021FFF7AEFA2420C021FFF7AAFA14
:1036780010E000200021FFF77DFC04204021FFF727
:1036880079FC20208021FFF775FC2420C021FFF75A
:1036980071FC00BF00BF03E000BF02E000BF00E014
:1036A80000BF0837BD4680BDA30D002080B586B099
:1036B80000AF0346FB71BD4B1B881BB24033DB09CF
:1036C8009BB280339BB29BB21BB21846FEF70EFF2B
:1036D8000346FB75B64B1B78042B00F25F8301A2EF
:1036E80052F823F001370008093700086539000847
:1036F800EB370008F73A0008AE4AFB7D13704DE33C
:10370800FB79012B0ED0022B3BD0002B00D045E3D8
:10371800A84AFB7D1370A84AFB7D1370A74AFB7D5E
:1037280013705DE0FB7D582202FB03F31B0A9BB27A
:103738002C3B9BB2BB82A04B1A78B7F914301046C9
:103748001946FFF719FA03461A469B4B1A70FB7D78
:103758009AB2FB7DC62101FB03F31B0A9BB21344FB
:103768009BB2E33B9BB27B82944B1A78B7F9123039
:1037780010461946FFF7DAF903461A468F4B1A70B6
:103788002EE0FB7D9AB2FB7D672101FB03F31B0A48
:103798009BB213449BB2B33B9BB23B82854B1A78D6
:1037A800B7F9103010461946FFF7C0F903461A4614
:1037B800804B1A70FB7DB72202FB03F31B0A9BB2F6
:1037C8005B3B9BB2FB817C4B1A78B7F90E301046F5
:1037D8001946FFF7D1F903461A46774B1A7000BF0E
:1037E800DCE2FB79032B00F2D48201A252F823F029
:1037F800093800081D38000837380008CD38000897
:103808006C4AFB7D13706C4AFB7D13706B4AFB7D21
:103818001370A2E0674AFB7D82F88030664AFB7D20
:1038280082F88030654AFB7D82F8803095E0FB7D28
:10383800582202FB03F31B0A9BB22C3B9BB2BB82B0
:103848005D4B1A78B7F9143010461946FFF794F90A
:1038580003461A46584B1A70574B93F88020B7F90D
:10386800143010461946FFF787F903461A46524B9B
:1038780083F88020FB7D9AB2FB7DC62101FB03F310
:103888001B0A9BB213449BB2E33B9BB27B824B4B1C
:103898001A78B7F9123010461946FFF747F9034668
:1038A8001A46464B1A70454B93F88020B7F91230E8
:1038B80010461946FFF73AF903461A463F4B83F874
:1038C80080204AE0FB7D9AB2FB7D672101FB03F370
:1038D8001B0A9BB213449BB2B33B9BB23B82354B52
:1038E8001A78B7F9103010461946FFF71FF9034642
:1038F8001A46304B1A702F4B93F88020B7F91030C6
:1039080010461946FFF712F903461A46294B83F861
:103918008020FB7DB72202FB03F31B0A9BB25B3BB3
:103928009BB2FB81244B1A78B7F90E301046194622
:10393800FFF722F903461A461F4B1A701E4B93F8DD
:103948008020B7F90E3010461946FFF715F90346DF
:103958001A46194B83F8802000BF1AE2FB79032B23
:1039680000F2198201A252F823F000BF853900083D
:1039780099390008C93900085F3A00080D4AFB7DEB
:1039880013700D4AFB7D13700C4AFB7D1370ADE07C
:10399800084AFB7D82F84030074AFB7D82F84030B8
:1039A800064AFB7D82F84030A0E000BF8804002072
:1039B800A30D0020080500200806002008070020A5
:1039C800FB7D582202FB03F31B0A9BB22C3B9BB2E4
:1039D800BB82AA4B1A78B7F9143010461946FFF77C
:1039E800CBF803461A46A54B1A70A44B93F840200F
:1039F800B7F9143010461946FFF7BEF803461A46C1
:103A08009E4B83F84020FB7D9AB2FB7DC62101FBCB
:103A180003F31B0A9BB213449BB2E33B9BB27B822A
:103A2800974B1A78B7F9123010461946FFF77EF807
:103A380003461A46924B1A70914B93F84020B7F9F7
:103A4800123010461946FFF771F803461A468C4B98
:103A580083F840204AE0FB7D9AB2FB7D672101FB99
:103A680003F31B0A9BB213449BB2B33B9BB23B824A
:103A7800844B1A78B7F9103010461946FFF756F8F4
:103A880003461A467F4B1A707E4B93F84020B7F9CD
:103A9800103010461946FFF749F803461A46794B85
:103AA80083F84020FB7DB72202FB03F31B0A9BB27D
:103AB8005B3B9BB2FB81714B1A78B7F90E3010460D
:103AC8001946FFF759F803461A466C4B1A706B4BA8
:103AD80093F84020B7F90E3010461946FFF74CF816
:103AE80003461A46654B83F8402000BF53E1FB7933
:103AF800052B00F2528101A252F823F01D3B000869
:103B0800313B00084B3B0008653B00087F3B000841
:103B1800913C00085B4AFB7D1370584AFB7D13708B
:103B2800574AFB7D137032E1564AFB7D82F84030DC
:103B3800524AFB7D82F84030514AFB7D82F8403082
:103B480025E1504AFB7D82F880304C4AFB7D82F8A3
:103B580080304B4AFB7D82F8803018E1494AFB7D72
:103B680082F8C030454AFB7D82F8C030444AFB7D6C
:103B780082F8C0300BE1FB7D582202FB03F31B0ADD
:103B88009BB22C3B9BB2BB823C4B1A78B7F91430E2
:103B980010461946FEF7F0FF03461A46374B1A70CF
:103BA800364B93F84020B7F9143010461946FEF703
:103BB800E3FF03461A46314B83F840202F4B93F816
:103BC8008020B7F9143010461946FEF7D5FF034692
:103BD8001A462A4B83F88020284B93F8C020B7F95F
:103BE800143010461946FEF7C7FF03461A46234B02
:103BF80083F8C020FB7D9AB2FB7DC62101FB03F34D
:103C08001B0A9BB213449BB2E33B9BB27B821C4BC7
:103C18001A78B7F9123010461946FEF787FF03469F
:103C28001A46174B1A70164B93F84020B7F9123002
:103C380010461946FEF77AFF03461A46104B83F8DA
:103C480040200F4B93F88020B7F9123010461946E0
:103C5800FEF76CFF03461A46094B83F88020084B91
:103C680093F8C020B7F9123010461946FEF75EFFE8
:103C780003461A46024B83F8C02088E00806002055
:103C88000807002008050020FB7D9AB2FB7D67210C
:103C980001FB03F31B0A9BB213449BB2B33B9BB2D9
:103CA8003B82404B1A78B7F9103010461946FEF798
:103CB8003DFF03461A463B4B1A703A4B93F8402097
:103CC800B7F9103010461946FEF730FF03461A467A
:103CD800344B83F84020334B93F88020B7F91030E9
:103CE80010461946FEF722FF03461A462D4B83F865
:103CF80080202C4B93F8C020B7F910301046194695
:103D0800FEF714FF03461A46264B83F8C020FB7DB6
:103D1800B72202FB03F31B0A9BB25B3B9BB2FB81FE
:103D2800214B1A78B7F90E3010461946FEF724FFD2
:103D380003461A461C4B1A701B4B93F84020B7F9E0
:103D48000E3010461946FEF717FF03461A46164B63
:103D580083F84020144B93F88020B7F90E301046B2
:103D68001946FEF709FF03461A460F4B83F88020D1
:103D78000D4B93F8C020B7F90E3010461946FEF7E0
:103D8800FBFE03461A46084B83F8C02000BF00BF5D
:103D980003E000BF02E000BF00E000BF1837BD46E7
:103DA80080BD00BF080500200806002080B586B049
:103DB80000AF9D4B1B88002B12D09C4B1B88002BFF
:103DC80008D1FEF7A1F803467B747B7C002B01D059
:103DD8007B7C8BE1954B1B88013B9AB2934B1A80F5
:103DE8000023FB757BE1FB7D914AD35C3B743B7CF4
:103DF800904AD35CFB733B7C8F4AD35CBB73FB7BE1
:103E0800002B01D08D4B00E08D4BBB60BB7B002BA2
:103E180001D08C4A00E08C4ABB7B002B01D08B4B35
:103E280000E08B4B10461946FDF75AFB0346FB7121
:103E38000023BB82FB7903F00F03BB71BB79002B16
:103E480005D0BB791846FDF721FA0346BB82BA8A2A
:103E5800FB7910461946FDF71FFB0346BB803B7CE8
:103E68007C4A32F813309AB2BB881344BB803B7C3F
:103E7800B988784A22F81310BB681B889BB2BA88A5
:103E880012FB03F39BB29AB2734B1A803B7C734AC2
:103E9800D35CFB70724B1B78002B53D00123BB758E
:103EA80048E0FB78002B01D06E4A00E06E4AFB78B0
:103EB800002B01D06D4B00E06D4B10461946FDF705
:103EC8000FFB0346FB71FB7903F00F03BB71BB7952
:103ED800002B03D0BB791846FDF7D8F9FB791B09ED
:103EE800DBB2BB82FB7903F00F03FB71FB79002B7C
:103EF8000FD0BB8A002B1AD0BA7DBB8A13443F2B44
:103F080001DD1C23F2E0BB8ADAB2BB7D1344BB752A
:103F18000DE0BB8A0F2B09D1BB7D1033402B01DD8F
:103F28001C23E3E0BB7D0F33BB7500E005E0BB7DE0
:103F38000133BB75BB7D3F2BB3D9FB7D1846FFF71B
:103F4800B5FBC9E00123BB75AFE0FB78002B01D0BE
:103F5800444A00E0444AFB78002B01D0434B00E080
:103F6800434B10461946FDF7BBFA0346FB71002385
:103F78007B82FB7903F00F03BB71BB79002B05D063
:103F8800BB791846FDF782F903467B82FB791B094A
:103F9800DBB2BB82FB7903F00F03FB71FB79002BCB
:103FA80036D0BB8A002B18D0BA7DBB8A13443F2B6E
:103FB80001DD1C239AE00DE0BB7D5A1CBA751A4638
:103FC8002C4B9B5C5BB2244A002122F81310BB8A5D
:103FD800013BBB82BB8A002BEED17A8AFB79104663
:103FE8001946FDF759FA03463B80BB7D214AD35C4D
:103FF8005BB2BA7D5200B9680A44128891B23A8815
:1040080011FB02F292B291B2134A22F8131049E05E
:10401800BB8A0F2B45D1BB7D1033402B01DD1C2300
:1040280064E01023BB8235E0900D0020940D002041
:10403800B00D00208C0D00209C0D00208808002069
:10404800080800207009002010090020C00900207D
:10405800600900200809002088040020A00D002025
:10406800C10D0020200B0020D0090020700B00207B
:10407800200A0020B44E0008BB7D5A1CBA751A46A7
:104088001C4B9B5C5BB21C4A002122F81310BB8AB4
:10409800013BBB82BB8A002BEED1BB7D013BBB75CC
:1040A80000E006E0BB7D0133BB75BB7D3F2B7FF68F
:1040B8004CAF0AE0BB7D5A1CBA751A460D4B9B5C87
:1040C8005BB20D4A002122F81310BB7D3F2BF1D9BA
:1040D800FB7D1846FFF710FAFB7D0133FB75074B94
:1040E8001B78FA7D9A42FFF47EAE002318461837F3
:1040F800BD4680BDB44E000888040020A40D0020F1
:1041080080B582B000AF164B1B78002B02D0144B41
:104118001B7820E0134B1B88002B01D101231AE0E8
:10412800FFF744FE0346FB71FB79002B03D10C4BD0
:104138001B78002B08D00A4B1B78002B02D0084BA9
:104148001B7808E0FB7906E0064B1B88013B9AB216
:10415800044B1A80002318460837BD4680BD00BFAF
:10416800C00D0020AC0D002080B586B000AFF8600F
:10417800B9607A60FB70FB6800221A60FB68002255
:104188005A60FB6800229A60FB680022DA60FB68CC
:1041980000221A61FB6800221A75FB6800229A61E6
:1041A800FB680022DA61FB6800221A62FB680022C1
:1041B8005A62FB6800229A62484ABB681360484A00
:1041C8007B681360474B00221A70474AFB781370CC
:1041D800FDF730FE0346FB75FB7D002B03D1414BF9
:1041E8001B78002B08D03F4B1B78002B02D03D4B8F
:1041F8001B786EE0FB7D6CE0FDF7C0FD0346FB75A8
:10420800FB7D002B03D1374B1B78002B08D0354B97
:104218001B78002B02D0334B1B785AE0FB7D58E00B
:10422800FDF7C0FF0346FB75FB7D002B03D12D4B2B
:104238001B78002B08D02B4B1B78002B02D0294B66
:104248001B7846E0FB7D44E0FDF764FF0346FB7501
:10425800FB7D002B03D1234B1B78002B08D0214B6F
:104268001B78002B02D01F4B1B7832E0FB7D30E01F
:104278001E4B1B881A46FB681A601D4B1B881A4682
:10428800FB685A601B4B1B781A46FB689A601A4BEE
:104298001A78FB681A75194B1B881A46FB68DA608E
:1042A800174B1B881A46FB681A61164B1B781A466F
:1042B800FB689A61144B1B781A46FB68DA61FB6845
:1042C800124A1A62FB68124A5A62FB68114A9A62D9
:1042D800002318461837BD4680BD00BFB80D002022
:1042E800BC0D0020C00D0020C10D00207A0D00205B
:1042F8007C0D00207E0D0020A30D0020A80D0020BD
:10430800AA0D0020A50D0020A60D002008050020FC
:10431800080600200807002081F0004102E000BFE5
:1043280083F0004330B54FEA41044FEA430594EA6D
:10433800050F08BF90EA020F1FBF54EA000C55EAA8
:10434800020C7FEA645C7FEA655C00F0E2804FEA79
:104358005454D4EB5555B8BF6D420CDD2C4480EA5B
:10436800020281EA030382EA000083EA010180EA8B
:10437800020281EA0303362D88BF30BD11F0004FD9
:104388004FEA01314FF4801C4CEA113102D040420F
:1043980061EB410113F0004F4FEA03334CEA13334A
:1043A80002D0524263EB430394EA050F00F0A78062
:1043B800A4F10104D5F1200E0DDB02FA0EFC22FA5D
:1043C80005F2801841F1000103FA0EF2801843FA51
:1043D80005F359410EE0A5F120050EF1200E012A42
:1043E80003FA0EFC28BF4CF0020C43FA05F3C01880
:1043F80051EBE37101F0004507D54FF0000EDCF1F9
:10440800000C7EEB00006EEB0101B1F5801F1BD3A1
:10441800B1F5001F0CD349085FEA30004FEA3C0CA5
:1044280004F101044FEA445212F5800F80F09A809B
:10443800BCF1004F08BF5FEA500C50F1000041EB9F
:10444800045141EA050130BD5FEA4C0C404141EBA3
:10445800010111F4801FA4F10104E9D191F0000FCA
:1044680004BF01460020B1FA81F308BF2033A3F14D
:104478000B03B3F120020CDA0C3208DD02F1140C44
:10448800C2F10C0201FA0CF021FA02F10CE002F17F
:104498001402D8BFC2F1200C01FA02F120FA0CFC78
:1044A800DCBF41EA0C019040E41AA2BF01EB0451C1
:1044B800294330BD6FEA04041F3C1CDA0C340EDCBF
:1044C80004F11404C4F1200220FA04F001FA02F302
:1044D80040EA030021FA04F345EA030130BDC4F1C0
:1044E8000C04C4F1200220FA02F001FA04F340EAB5
:1044F8000300294630BD21FA04F0294630BD94F066
:10450800000F83F4801306BF81F480110134013D4C
:104518004EE77FEA645C18BF7FEA655C29D094EABD
:10452800050F08BF90EA020F05D054EA000C04BF3B
:104538001946104630BD91EA030F1EBF0021002026
:1045480030BD5FEA545C05D14000494128BF41F0C5
:10455800004130BD14F580043CBF01F5801130BD29
:1045680001F0004545F0FE4141F470014FF00000B4
:1045780030BD7FEA645C1ABF194610467FEA655C65
:104588001CBF0B46024650EA013406BF52EA033507
:1045980091EA030F41F4002130BD00BF90F0000FF5
:1045A80004BF0021704730B54FF4806404F1320431
:1045B8004FF000054FF0000150E700BF90F0000FEA
:1045C80004BF0021704730B54FF4806404F1320411
:1045D80010F0004548BF40424FF000013EE700BFE1
:1045E80042004FEAE2014FEA31014FEA02701FBF71
:1045F80012F07F4393F07F4F81F06051704792F043
:10460800000F14BF93F07F4F704730B54FF46074BC
:1046180001F0004521F0004120E700BF50EA010207
:1046280008BF704730B54FF000050AE050EA0102B4
:1046380008BF704730B511F0004502D5404261EB24
:1046480041014FF4806404F132045FEA915C3FF465
:10465800DCAE4FF003025FEADC0C18BF03325FEAFE
:10466800DC0C18BF033202EBDC02C2F1200300FAB3
:1046780003FC20FA02F001FA03FE40EA0E0021FAD8
:1046880002F11444C1E600BF70B54FF0FF0C4CF4C2
:10469800E06C1CEA11541DBF1CEA135594EA0C0F78
:1046A80095EA0C0F00F0DEF82C4481EA030621EAB3
:1046B8004C5123EA4C5350EA013518BF52EA0335EE
:1046C80041F4801143F4801338D0A0FB02CE4FF0A0
:1046D8000005E1FB02E506F00042E0FB03E54FF0D0
:1046E8000006E1FB03569CF0000F18BF4EF0010EC8
:1046F800A4F1FF04B6F5007F64F5407404D25FEAC4
:104708004E0E6D4146EB060642EAC62141EA555176
:104718004FEAC52040EA5E504FEACE2EB4F1FD0CB8
:1047280088BFBCF5E06F1ED8BEF1004F08BF5FEA36
:10473800500E50F1000041EB045170BD06F00046E8
:1047480046EA010140EA020081EA0301B4EB5C0495
:10475800C2BFD4EB0C0541EA045170BD41F480118D
:104768004FF0000E013C00F3AB8014F1360FDEBFB2
:10477800002001F0004170BDC4F10004203C35DA8E
:104788000C341BDC04F11404C4F1200500FA05F311
:1047980020FA04F001FA05F240EA020001F00042B2
:1047A80021F0004110EBD37021FA04F642EB060128
:1047B8005EEA430E08BF20EAD37070BDC4F10C0452
:1047C800C4F1200500FA04F320FA05F001FA04F216
:1047D80040EA020001F0004110EBD37041F1000102
:1047E8005EEA430E08BF20EAD37070BDC4F120050D
:1047F80000FA05F24EEA020E20FA04F301FA05F275
:1048080043EA020321FA04F001F0004121FA04F21C
:1048180020EA020000EBD3705EEA430E08BF20EAEC
:10482800D37070BD94F0000F0FD101F00046400026
:1048380041EB010111F4801F08BF013CF7D041EAA8
:10484800060195F0000F18BF704703F000465200AC
:1048580043EB030313F4801F08BF013DF7D043EA7D
:104868000603704794EA0C0F0CEA135518BF95EA33
:104878000C0F0CD050EA410618BF52EA4306D1D1BA
:1048880081EA030101F000414FF0000070BD50EAD9
:10489800410606BF1046194652EA430619D094EA63
:1048A8000C0F02D150EA013613D195EA0C0F05D14D
:1048B80052EA03361CBF104619460AD181EA0301A1
:1048C80001F0004141F0FE4141F470014FF0000059
:1048D80070BD41F0FE4141F4780170BD70B54FF0F4
:1048E800FF0C4CF4E06C1CEA11541DBF1CEA135574
:1048F80094EA0C0F95EA0C0F00F0A7F8A4EB050456
:1049080081EA030E52EA03354FEA013100F088804C
:104918004FEA03334FF0805545EA131343EA126315
:104928004FEA022245EA111545EA10654FEA0026CA
:104938000EF000419D4208BF964244F1FD0404F583
:10494800407402D25B084FEA3202B61A65EB0305DF
:104958005B084FEA32024FF480104FF4002CB6EB9C
:10496800020E75EB030E22BFB61A754640EA0C001C
:104978005B084FEA3202B6EB020E75EB030E22BF5C
:10498800B61A754640EA5C005B084FEA3202B6EB9D
:10499800020E75EB030E22BFB61A754640EA9C005C
:1049A8005B084FEA3202B6EB020E75EB030E22BF2C
:1049B800B61A754640EADC0055EA060E18D04FEAEA
:1049C800051545EA16754FEA06164FEAC30343EA8A
:1049D80052734FEAC2025FEA1C1CC0D111F4801F57
:1049E8000BD141EA00014FF000004FF0004CB6E750
:1049F80011F4801F04BF01430020B4F1FD0C88BFEF
:104A0800BCF5E06F3FF6AFAEB5EB030C04BFB6EBF9
:104A1800020C5FEA500C50F1000041EB045170BDEC
:104A28000EF0004E4EEA113114EB5C04C2BFD4EB19
:104A38000C0541EA045170BD41F480114FF0000E9D
:104A4800013C90E645EA060E8DE60CEA135594EA19
:104A58000C0F08BF95EA0C0F3FF43BAF94EA0C0F1C
:104A68000AD150EA01347FF434AF95EA0C0F7FF491
:104A780025AF104619462CE795EA0C0F06D152EAE5
:104A880003353FF4FDAE1046194622E750EA4106C9
:104A980018BF52EA43067FF4C5AE50EA41047FF4DA
:104AA8000DAF52EA43057FF4EBAE12E74A0011D28C
:104AB80012F5001211D20DD56FF47873B3EB625270
:104AC8000ED44FEAC12343F0004343EA505323FA7C
:104AD80002F070474FF00000704750EA013002D1F1
:104AE8004FF0FF3070474FF000007047002103E09F
:104AF8000B4B5B58435004310A480B4B42189A42FF
:104B0800F6D30A4A02E0002342F8043B084B9A42D3
:104B1800F9D3FBF7DFFC00F01FF8FBF799FB7047B0
:104B28006C4F0008000000204404002048040020C6
:104B3800080E0020FEE7000008B50021044600F03A
:104B48008BF8044B1868C36B03B19847204600F0F4
:104B58005BF900BF384F000870B50F4E0F4D761B3C
:104B6800B61018BF002405D0013455F8043B984707
:104B7800A642F9D10A4E0B4D761B00F0DDF9B610AE
:104B880018BF002406D0013455F8043B9847A642C4
:104B9800F9D170BD70BD00BF604F0008604F0008BC
:104BA800684F0008604F000870B4840746D0541E50
:104BB800002A41D0CDB2034602E0621EE4B3144697
:104BC80003F8015B9A07F8D1032C2ED9CDB245EA38
:104BD80005250F2C45EA054519D903F1100226468B
:104BE800103E0F2E42F8105C42F80C5C42F8085C4C
:104BF80042F8045C02F11002F2D8A4F1100222F08B
:104C08000F0204F00F041032032C13440DD91E4672
:104C18002246043A032A46F8045BFAD8221F22F0F7
:104C280003020432134404F003042CB1C9B21C4437
:104C380003F8011BA342FBD170BC7047144603461E
:104C4800C2E700BF024B13B1024800F06FB87047CB
:104C580000000000414D00082DE9F04F314B83B0B2
:104C68001B68009303F5A47381460E460193009BCD
:104C7800D3F8487127B3DDF804A07C68651E0ED40C
:104C8800013407EB84044FF00008E6B1D4F8003192
:104C9800B34218D0013D6B1CA4F10404F5D1224B9A
:104CA80073B17B68002B36D13B68002B34D0384673
:104CB800CAF80030AFF30080DAF80070002FDCD1BA
:104CC80003B0BDE8F08F7B682268013BAB420CBFA4
:104CD8007D60C4F80080002ADCD0D7F88831D7F886
:104CE80004B00121A940194208D190477B685B456F
:104CF800BDD1DAF80030BB42CCD0B8E7D7F88C3158
:104D0800194204D14846D4F880109047EEE7D4F809
:104D180080009047EAE73B68BA461F46002FACD1AF
:104D2800CEE700BF384F0008000000000146002011
:104D38000246034600F016B838B5084B084DED1A80
:104D4800AC1018BFED1805D0013C55F8043D984744
:104D5800002CF9D1BDE8384000F0F4B8684F0008DD
:104D68006C4F00082DE9F047254C2568D5F84841D7
:104D78000646884692469946CCB360681F2818DCD8
:104D8800431C7EB104EB80050121C5F888A0D4F846
:104D9800887101FA00F21743022EC4F88871C5F829
:104DA80008911ED00230636044F820800020BDE8DE
:104DB800F087144B03B34FF4C870AFF30080044678
:104DC800D0B1D5F84831002780E88800C5F84841B7
:104DD80038460123C4F88871C4F88C71002EE1D0DC
:104DE800D0E7D4F88C110A43C4F88C21DAE705F52A
:104DF800A674C5F84841C0E74FF0FF30BDE8F0871A
:104E0800384F000800000000FEE700BFF8B5C1F306
:104E18000A56A6F2FF35132D0A460B460446864667
:104E280011DC002D2DDB0F461F492941114224D0EA
:104E38004FF400232B413B4423EA01030022194687
:104E480014462046F8BD332D05DDB5F5806F1ED01C
:104E580011462046F8BDA6F213414FF0FF30C84076
:104E68002042F5D0C6F5866602360121B1400919FF
:104E780028BF013321EA0002E1E70028D8D1114612
:104E8800E7E7013501F0004307D00022D7E70246E3
:104E98000B46FFF747FA0446D3E743F07F5343F442
:104EA80040130022CBE700BFFFFF0F0000010810EE
:104EB8000902030A11182019120B04050C131A21F0
:104EC800283029221B140D06070E151C232A3138F9
:104ED80039322B241D160F171E252C333A3B342D3F
:104EE800261F272E353C3D362F373E3F80B2B2A7CE
:104EF800F6A797E8E89780D1DBD18065B2C5C5B23F
:104F080065458BA7B1A78B4523608397978360235B
:104F1800315B7680765B312E516565512E2A454F7F
:104F2800452A233636231C251C13130A4300000088
:104F38001800002000000000F8B500BFF8BC08BC4D
:104F48009E467047F8B500BFF8BC08BC9E4670473F
:084F58008CB2FF7F0100000094
:084F60004D4C0008AD010008F2
:044F680089010008B3
:104F6C0000000000007A030A0000000000000000AE
:104F7C0001020304060708090000000004030020D6
:104F8C006C030020D403002000000000000000008F
:104F9C000000000000000000000000000000000005
:104FAC00000000000000000000000000344F00086A
:104FBC0000000000000000000000000000000000E5
:104FCC0000000000000000000000000000000000D5
:104FDC0000000000000000000000000000000000C5
:104FEC0000000000000000000000000000000000B5
:104FFC0000000000000000000000000000000000A5
:10500C000000000000000000000000000000000094
:10501C000000000000000000000000000000000084
:10502C0001000000000000000E33CDAB34126DE621
:10503C00ECDE05000B00000000000000000000008A
:10504C000000000000000000000000000000000054
:10505C000000000000000000000000000000000044
:10506C000000000000000000000000000000000034
:10507C000000000000000000000000000000000024
:0453AC0018000020C5
:0453B00000000000F9
:0400000508004AF5B0
:00000001FF
